:020000040800F2
:10000000B8B3002079020008295B0008CD5A000827
:10001000255B0008C70E0008657600080000000098
:100020000000000000000000000000003F5B00082E
:100030003D0F0008000000003D5B0008415B000828
:10004000930200089302000893020008930200083C
:10005000930200089302000893020008930200082C
:10006000930200089302000893020008930200081C
:100070000D0F000893020008930200089302000885
:10008000930200089302000893020008DD0E0008A6
:10009000CD0E0008930200089302000893020008A6
:1000A00093020008930200089302000893020008DC
:1000B000A15B000893020008930200089302000865
:1000C00093020008930200089302000893020008BC
:1000D000930200089302000893020008555D00088F
:1000E000930200089302000893020008930200089C
:1000F000930200089302000893020008930200088C
:10010000930200089302000893020008930200087B
:10011000930200089302000893020008930200086B
:100120001D0F000893020008930200082D0F00081D
:10013000930200089302000893020008FD0E0008D5
:10014000ED0E000893020008930200082D5B0008E2
:10015000930200089302000893020008930200082B
:10016000930200089302000893020008930200081B
:1001700093020008930200089302000800000000A8
:10018000930200089302000800F002F800F065F8FE
:100190000AA090E8000C82448344AAF10107DA45E2
:1001A00001D100F05AF8AFF2090EBAE80F0013F0CF
:1001B000010F18BFFB1A43F001031847140C01008C
:1001C000340C01000A444FF0000C10F8013B13F00E
:1001D000070408BF10F8014B1D1108BF10F8015BA0
:1001E000641E05D010F8016B641E01F8016BF9D193
:1001F00013F0080F1EBF10F8014BAD1C0C1B09D1EA
:100200006D1E58BF01F801CBFAD505E014F8016B5B
:1002100001F8016B6D1EF9D59142D6D370470000ED
:100220000023002400250026103A28BF78C1FBD8FF
:10023000520728BF30C148BF0B6070471FB510F090
:10024000B6FB9DE8030000F011FA00F0DDF91FBDD8
:1002500010B5002000F04BFA10BD00F09EFA1146D8
:10026000FFF7ECFF10F08CF800F0BCFA03B4FFF7D6
:10027000EFFF03BC00F08AFA0948804709480047AD
:10028000FEE7FEE7FEE7FEE7FEE7FEE7FEE7FEE746
:10029000FEE7FEE704480549054A064B70470000A3
:1002A0008D5B000889010008B8330020B8B3002036
:1002B000B8730020B873002070B5064600F0B6F998
:1002C000056806F10B0020F00704B4429CBF002033
:1002D00070BD2B466A68BAB11068A04210D304F111
:1002E000080188423CBF5068586007D35168101914
:1002F00041601168091B016058601460101D70BDD9
:1003000013465268002AE7D12146284600F09AF9A0
:100310000028DED170BD70B50446051F00F086F9D7
:100320000068002C14BF446870BD002C18BFAC429C
:100330003CBF20466468F8D301680A18AA4218BF77
:10034000456003D12A6805461144016028684119B7
:10035000A1421CBF6C6070BD61686960216808447F
:10036000286070BD53EA020C00F069802DE9F04B63
:100370004FF00006002B1FBFB3FA83F503FA05F414
:1003800024FA05F65E4012BF1643B2FA82F502FA6D
:1003900005F4C5F120051EBF22FA05FC44EA0C0451
:1003A000203556EA044C4FEA144418BF641C4FF041
:1003B00000084FF00009904271EB030C39D300297B
:1003C00019BFB1FA81F701FA07F6B0FA80F700FA1F
:1003D00007F6C7F120071EBF20FA07FC46EA0C0605
:1003E0002037B6FBF4FCA7EB0507103F07F01F0B07
:1003F000CBF120060CFA0BFB2CFA06F644BFB346F1
:100400000026202FA4BF5E464FF0000B5BEA060CCF
:1004100008BF4FF0010B19EB0B09ABFB027C48EB5B
:100420000608C01B06FB02CC0BFB03CC71EB0C01D6
:10043000C1E70B46024641464846BDE8F08B13B57E
:100440004FF000004FF00001AFF30080BDE81C400A
:1004500070472DE9F041074615460E461020FFF77C
:100460002BFF04000AD06760C4E9026500F0E2F8DF
:100470000168216004600020BDE8F0810120FBE7F5
:10048000032A40F2308010F0030C00F0158011F8C0
:10049000013BBCF1020F624498BF11F801CB00F898
:1004A000013B38BF11F8013BA2F1040298BF00F8EC
:1004B00001CB38BF00F8013B11F0030300F02580A9
:1004C000083AC0F0088051F8043B083A51F804CBD0
:1004D000A0E80810F5E7121D5CBF51F8043B40F896
:1004E000043BAFF30080D20724BF11F8013B11F8A1
:1004F00001CB48BF11F8012B24BF00F8013B00F8E5
:1005000001CB48BF00F8012B704710B5203AC0F06E
:100510000B80B1E81850203AA0E81850B1E8185004
:10052000A0E81850BFF4F5AF5FEA027C24BFB1E841
:100530001850A0E8185044BF18C918C0BDE81040B2
:100540005FEA827C24BF51F8043B40F8043B08BFBB
:100550007047D20728BF31F8023B48BF11F8012B82
:1005600028BF20F8023B48BF00F8012B70474FF02E
:1005700000020429C0F0128010F0030C00F01B8070
:10058000CCF1040CBCF1020F18BF00F8012BA8BF7E
:1005900020F8022BA1EB0C0100F00DB85FEAC17C42
:1005A00024BF00F8012B00F8012B48BF00F8012BF5
:1005B00070474FF0000200B5134694469646203926
:1005C00022BFA0E80C50A0E80C50B1F12001BFF40C
:1005D000F7AF090728BFA0E80C5048BF0CC05DF872
:1005E00004EB890028BF40F8042B08BF704748BFC0
:1005F00020F8022B11F0804F18BF00F8012B704734
:10060000704770477047000070B5064C7C44064D3B
:100610007D4403E0206820448047241DAC42F9D18A
:1006200070BD0000E0070100E807010000487047C6
:100630007C25002000487047AC250020704770479B
:100640007047704738B504460A4600206946AFF344
:100650000080002808BF38BD02460099204600F0FF
:100660006FF8012038BD012000F089B8F8B5AFF36C
:100670000080054600200C46102000BF0646A81941
:10068000A0420DD9324669460020AFF30080070032
:1006900008BF00F074F80098A04218BF0546C419BE
:1006A000FFF7C4FF05600746F01D20F0070046195C
:1006B000284600F00AF8B44208BFF8BDA21B314634
:1006C0003868BDE8F84000F03BB800210160C0E99F
:1006D000011070471020704710B500F02DF8006829
:1006E00010BD10B5044600F027F8046010BD2DE9D8
:1006F000F0410646FFF79EFF8046454613E016B1DF
:10070000E068B0420ED120682860D4E90101D8F831
:10071000007088472046FFF7FEFDD8F80000B84279
:10072000EBD100E025462C68002CE8D1BDE8F08133
:100730000048704774250020004870477425002049
:10074000034640688C46002818BF88423CBF0346D9
:100750004068F8D318681844884207D00CF10300A9
:1007600020F00700001D411A521A0146081D0A60B8
:10077000FFF7D1BD002801D000F008B8704710B5D0
:1007800000F052F8BDE81040FFF7F4BF014918200F
:10079000ABBEFEE72600020070477546FFF7C8FFB4
:1007A000AE4605006946534620F00700854618B05E
:1007B00020B5FFF76FFDBDE820404FF000064FF079
:1007C00000074FF000084FF0000B21F00701AC4686
:1007D000ACE8C009ACE8C009ACE8C009ACE8C009A5
:1007E0008D46704710B50446AFF300802046BDE843
:1007F0001040FFF73BBD70B505460C460A2000E0EF
:100800006D1C00F039F835B128780028F8D102E0E5
:10081000641C00F031F814B120780028F8D1BDE84C
:1008200070400A2000F028B810B5012805D000213A
:1008300003A0FFF7E0FF012010BD09A1F8E70000C9
:1008400053494752544D454D3A204F7574206F66B9
:100850002068656170206D656D6F72790000000021
:100860003A2048656170206D656D6F727920636F05
:10087000727275707465640008B569468DF8000081
:100880000320ABBE08BD0000B0B5B0F800C00B88B7
:100890009C4553D145884B889D424FD113889C4538
:1008A0004CD153889D4249D143684968506805FB43
:1008B0000CFC0022B2EB9C0F30D04FEA9C0200BF30
:1008C00093ED000A91ED001A03F1100E30EE010ACB
:1008D00080ED000A93ED010A91ED011A01F1100477
:1008E00030EE010A80ED010A93ED020A91ED021A41
:1008F00000F1100530EE010A80ED020A93ED030AC3
:1009000091ED031A013A30EE010A80ED030A7346B5
:1009100028462146D4D12146284673461CF00302BE
:100920000AD000BFB3EC010AB1EC011A013A30EE73
:10093000010AA0EC010AF5D1002000E0FD2040B240
:10094000B0BD018042804360704700002DE9F04F48
:1009500081B02DED028B8EB0B0F800C0B0F802A0CF
:10096000D44540F03A810B88FD229C4540F0368109
:100970004F88BB4240F0328140689FEDB08ABCF1A5
:10098000000F009000F031814C686FF0030000EB25
:100990008C09002700266546CDF828C0204609941A
:1009A0000A98401B08D0B1002046FFF702FE3846E7
:1009B000013004F10404FBD304F1040BB5F1010888
:1009C0004FF07E50206012D0A9EB86015846FFF709
:1009D000F0FD01205C4600BF0130854204F10404B3
:1009E000FAD10136013FB8F1000F4546D8D1DDF804
:1009F00028C0BCF1000F00F0F8804FEACA000430B4
:100A000002900998009900EB8A00C0F100090420C7
:100A100000EB8A00ACF1010801EB8A054FEA8A037A
:100A2000019001F1040B4FF0000E0F4656460020D6
:100A30000A460490039300BF0EFB0AF002EB80010C
:100A400091ED000A0C910999B5EE400AF1EE10FA09
:100A500001EB80000D90CDF82080CDE906950B923A
:100A60002ED10EF1010060450DD20020414600BF9D
:100A70002A1892ED000AB5EE400AF1EE10FA06D1FE
:100A800001391844F4D10498012817D0D4E0A0EB20
:100A90000900002157F82130146842F8043B47F858
:100AA000214001318E42F5D10D9A514613680468F8
:100AB00040F8043B013942F8044BF7D1012004907F
:100AC0000C99AAEB0E0991ED008AB9F1010F4FF0D4
:100AD0007E5008600DD00120594600BF91ED000AFC
:100AE000013080EE080A864281ED000A01F104011E
:100AF000F4D10D995046CDF814B000BF91ED000A25
:100B0000013880EE080AA1EC010AF7D1DDF82C804B
:100B10000998A9F1010B0022654600BF724505D175
:100B200008EB890300EB8A0036E000BF0C9998EDD2
:100B3000008A91ED000ABBF1000F28EE000A38EEA2
:100B4000400A88ED000A17D00123042107EB010CAD
:100B500008EB01049CED000A94ED001A28EE000A4F
:100B6000013331EE400A9E4201F1040184ED000A96
:100B7000ECD108EB010301E008F104030D9C5146A0
:100B8000B4EC011A90ED000A28EE011A30EE410A89
:100B9000A0EC010A0139F3D103EB8E08013D02F10B
:100BA0000102BBD1079D02980B9ADDF82080054415
:100BB000039BDDF818900198DDF814B0DDF828C02B
:100BC0000432013E0EF1010EA8F10108A9EB030960
:100BD000074483447FF430AF09E0FD2250B20EB0E9
:100BE000BDEC028B01B0BDE8F08F00200490B5EEA3
:100BF000408AF1EE10FA4FF00002EFD1049801287C
:100C0000ECD00AFB0CF14FF000004FF0000271B184
:100C1000009B00BF93ED000AB5EE400AF1EE10FA1A
:100C200005D10132914203F10403F3D10A468A420D
:100C300008BF6FF00400D2E7FB22CFE700000000FE
:100C40002DE9F04F85B047880B889F4240F08480A3
:100C5000B0F800B013889B4540F07E80B1F802E008
:100C600053889E4578D1D0F8048050684968019037
:100C7000BC0827F0030008EB800604FB0EF09FED94
:100C8000390A07F0030C029101EB00104FEA8E02C3
:100C900000210090CDE903E70198DDF808A0009B52
:100CA00000EB8109B0EE401A5746404674B35546F2
:100CB00027464046B0EE401A95ED002A90ED003AE6
:100CC000154490ED014A23EE022A95ED003A1544B1
:100CD00090ED025A31EE021A24EE032A95ED003A05
:100CE000154490ED036A31EE021A25EE032A95EDC4
:100CF000003A31EE021A26EE032A31EE021A013FC3
:100D000000F110001544D7D11F463046BCF1000F4A
:100D10000CD0654690ED002A97ED003A043022EEA3
:100D2000032A31EE021A013D1744F3D1A9EC011A4E
:100D3000BEF1010E0AF1040A03F10403B2D1DDF899
:100D40000CE0049F714408EB8708BBF1010B06EB34
:100D50008706A1D1002000E0FD2040B205B0BDE82B
:100D6000F08F00BF00000000B0B5B0F800C00B88E5
:100D70009C4553D145884B889D424FD113889C4553
:100D80004CD153889D4249D143684968506805FB5E
:100D90000CFC0022B2EB9C0F30D04FEA9C0200BF4B
:100DA00093ED000A91ED001A03F1100E30EE410AA6
:100DB00080ED000A93ED010A91ED011A01F1100492
:100DC00030EE410A80ED010A93ED020A91ED021A1C
:100DD00000F1100530EE410A80ED020A93ED030A9E
:100DE00091ED031A013A30EE410A80ED030A734691
:100DF00028462146D4D12146284673461CF00302DA
:100E00000AD000BFB3EC010AB1EC011A013A30EE8E
:100E1000410AA0EC010AF5D1002000E0FD2040B21B
:100E2000B0BD00002DE9F04FB0F800A04A8892450F
:100E300045D142880B889A4241D1D1F804C0466816
:100E40004FEA920802F003094FEA0A1E4FEA8A01AC
:100E50004FF0000B624600BFB8F1000F1AD01546E4
:100E6000474600BF336828462B6073680D444350E3
:100E7000B3686C186B50F56806F11003661865507E
:100E8000013F06EB01051E46ECD100EB0E071E46A6
:100E900002E000BF0CEB8B07B9F1000F06D048460B
:100EA00056F8043B01383B600F44F9D10BF1010BBC
:100EB000BAF1010A02F10402CED1002000E0FD20C7
:100EC00040B2BDE8F08F00BFFEE7000010B5024859
:100ED00000F06AFA10BD00009802002010B5024828
:100EE00000F062FA10BD00009802002010B5024820
:100EF00000F05AFA10BD0000C002002010B50248F0
:100F000000F052FA10BD0000C002002010B50248E7
:100F100000F01AFE10BD00004C06002010B502487B
:100F200000F012FE10BD00009403002010B502482E
:100F300000F00AFE10BD0000F4030020704772B6F6
:100F400000BFFEE710B5024692F82030012B01D019
:100F5000022B06D1106840690843146860610020C4
:100F600010BD506A40F4802050620120F8E7F0B5CF
:100F700004460D461E4694F8207020688368A868D1
:100F800000B900E000BF012F01D0022F7DD103F096
:100F9000806030B903F0006018B903F08050002879
:100FA0007ED0C3F30161012088403060A86860B939
:100FB000B5F800C0E86840EA4C5C206800F5C070F5
:100FC00000EB0110C0F800C00FE0D5E901C040EA15
:100FD000CC00D5F80CC040EA0C00D4F800C00CF5E9
:100FE000C07C0CEB011CCCF80000D5F810C02068C8
:100FF00000F5C07000EB0110C0F804C0287D012886
:101000000ED1206800F5C07000EB0110406840F47C
:10101000807C206800F5C07000EB0110C0F804C0AF
:10102000D079000692F806C040EA0C4092F805C05C
:1010300040EA0C2092F804C040EA0C00D4F800C04A
:101040000CF5C07C0CEB011CCCF80C00D078000631
:1010500092F802C040EA0C4092F801C040EA0C202D
:1010600092F800C040EA0C00D4F800C00CF5C07C37
:101070000CEB011CCCF80800206800F5C07000EBF8
:101080000110006840F0010C01E00FE008E020686A
:1010900000F5C07000EB0110C0F800C00020F0BDEA
:1010A000606A40F4001060620120F8E7606A40F472
:1010B000802060620120F2E7F0B504460A4621680C
:1010C00094F82050012D01D0022D7ED1424901F526
:1010D0000071086840F001000860086820F47C5046
:1010E00008600868566A40EA06200860107D00F033
:1010F0001F06012000FA06F3C8699843C861A1F5EC
:101100000071D069C8B9D1F80C029843C1F80C023B
:10111000908880B2968940EA064601F510705769BA
:1011200040F83760108880B2168940EA064601F51B
:101130001070576900EBC7004660D069012819D1CB
:10114000D1F80C021843C1F80C02908880B21688BE
:1011500040EA064601F51070576940F837609089FB
:1011600080B2168940EA064601F51070576900EB17
:10117000C7004660906928B9D1F804029843C1F8C5
:10118000040204E0D1F804021843C1F80402106913
:1011900028B9D1F814029843C1F8140204E0D1F838
:1011A00014021843C1F81402106A012804D1D1F8BE
:1011B0001C021843C1F81C02D1F8000220F0010003
:1011C000C1F800020020F0BDFFE7606A40F4802013
:1011D00060620120F7E7000000640040704770B5CE
:1011E000044694F82050012D01D0022D7DD151B933
:1011F0002068C06800F0030080B9606A40F4001005
:101200006062012070BD2068006900F0030028B909
:10121000606A40F4001060620120F3E7206800F586
:10122000D87000EB0110006800F004009060906836
:1012300040B9206800F5D87000EB01100068400D3F
:10124000106007E0206800F5D87000EB011000681E
:10125000C0085060206800F5D87000EB01100068ED
:1012600000F00200D060206800F5D87000EB01109B
:10127000406800F00F00082802D30820106108E041
:10128000206800F5D87000EB0110406800F00F00F6
:101290001061206800F5D87000EB0110406800F480
:1012A0007F40000A9061206800F5D87000EB0110C3
:1012B0004068000C5061206800F5D87000EB011008
:1012C00080681870206800F5D87000EB0110806805
:1012D00000F47F40000A5870206800F5D87000EBD9
:1012E0000110806800F47F0000E03CE0000C987082
:1012F000206800F5D87000EB01108068000ED870EF
:10130000206800F5D87000EB0110C06818712068E3
:1013100000F5D87000EB0110C06800F47F40000AAF
:101320005871206800F5D87000EB0110C06800F417
:101330007F00000C9871206800F5D87000EB011058
:10134000C068000ED87131B92068C06840F0200034
:101350002668F06005E02068006940F020002668FB
:10136000306100204EE7606A40F480206062012016
:1013700048E70146002091F82020012A01D0022AE6
:1013800011D10B689B6803F0806303B1401C0B68AC
:101390009B6803F0006303B1401C0B689B6803F07B
:1013A000805303B1401C70472DE9F05F04460025CF
:1013B000206846692068D0F8049020688768206813
:1013C000D0F80CA02068D0F810B02068D0F81880B1
:1013D00006F00100002855D007F00100C0B101203F
:1013E0002168886007F0020018B1204600F011FB68
:1013F0000EE007F0040010B145F4006508E007F0C6
:10140000080010B145F4805502E0204600F000FBD2
:1014100007F48070C8B14FF480702168886007F4C9
:10142000007018B1204600F0F6FA0EE007F4806074
:1014300010B145F4005508E007F4006010B145F420
:10144000804502E0204600F0E5FA07F48030C8B19C
:101450004FF480302168886007F4003018B12046CE
:1014600000F0DBFA0EE007F4802010B145F40045EF
:1014700008E007F4002010B145F4803502E0204672
:1014800000F0CAFA06F0080038B10AF0100020B1E6
:1014900045F4007510202168C86006F0040040B1D2
:1014A0000AF0080028B108202168C860204600F032
:1014B0001DFA06F0020038B12068C06800F0030091
:1014C00010B1204600F014FA06F0400038B10BF0DD
:1014D000100020B145F4806510202168086106F0F5
:1014E000200040B10BF0080028B1082021680861F5
:1014F000204600F05BFA06F0100038B12068006961
:1015000000F0030010B1204600F051FA06F400305C
:1015100040B109F0100028B1102021684860204631
:1015200000F046FA06F4803040B109F0080028B116
:10153000082021684860204600F070FA06F4004058
:1015400088B309F0040078B306F4807020B108F085
:10155000010008B145F0010506F4007020B108F063
:10156000020008B145F0020506F4806020B108F0E1
:10157000040008B145F0040506F40060A0B108F0CD
:10158000700088B108F07000402817D006DC1028E1
:101590000BD020280CD0302819D10CE0502810D0C6
:1015A000602814D110E01DE019E045F008050FE0B7
:1015B00045F010050CE045F0200509E045F0400538
:1015C00006E045F0800503E045F4807500E000BFCB
:1015D00000BF2068806920F07000216888610420C5
:1015E000216848602DB1606A284360622046FFF799
:1015F000F5FDBDE8F09F70B504460CB9012070BD43
:1016000094F8200010B9204600F0B0F82068006877
:1016100040F001002168086000F08AFD05460DE0F9
:1016200000F086FD401B0A2808D9606A40F40030AB
:101630006062052084F820000120E0E7206840680F
:1016400000F001000028EBD02068006820F00200C4
:101650002168086000F06CFD05460DE000F068FDB3
:10166000401B0A2808D9606A40F4003060620520F7
:1016700084F820000120C2E72068406800F00200E2
:101680000028EBD1207E012806D12068006840F0B8
:1016900080002168086005E02068006820F0800074
:1016A00021680860607E012806D12068006840F04B
:1016B00040002168086005E02068006820F04000D4
:1016C00021680860A07E012806D12068006840F0EB
:1016D00020002168086005E02068006820F02000F4
:1016E00021680860E07E012806D12068006820F0AB
:1016F00010002168086005E02068006840F01000D4
:1017000021680860207F012806D12068006840F029
:1017100008002168086005E02068006820F00800E3
:1017200021680860607F012806D12068006840F0C9
:1017300004002168086005E02068006820F00400CB
:1017400021680860D4E902010843216908436169FE
:1017500008436168491E08432168C861002060622F
:10176000012084F82000002049E7000010B586B071
:101770000446142101A8FEF71CFF56492068884240
:1017800049D155480068401C534908600846006824
:1017900001280FD100BF002000905048006840F0A1
:1017A00000704E4908600846006800F00070009024
:1017B00000BF00BF00BF00200090484810380068FC
:1017C00040F008004549103908600846006800F0FC
:1017D0000800009000BF00BF03200190022002908B
:1017E00000200390032004900920059001A93C48A3
:1017F00000F09EFB00221146132001F0A9F81320EF
:1018000001F092F800221146142001F0A1F81420F2
:1018100001F08AF85CE033492068884258D100BF63
:10182000002000902D48006840F080602B4908603F
:101830000846006800F08060009000BF00BF2648A6
:101840000068401C244908600846006801280FD140
:1018500000BF002000902148006840F000701F4940
:1018600008600846006800F00070009000BF00BFEC
:1018700000BF0020009019481038006840F00200B6
:101880001649103908600846006800F00200009010
:1018900000BF00BF60200190022002900020039052
:1018A000032004900920059001A90F4800F040FB97
:1018B000002211463F2001F04BF83F2001F034F8A0
:1018C00000221146402001F043F8402001F02CF89E
:1018D00006B010BD006400403400002040380240D3
:1018E000000C024000680040000402407047000005
:1018F00030B589B004466B4602AA00212046FFF7A6
:101900006EFC0298B0F5007F23D90298B0F5027FF3
:101910001FD82449206888420BD107F02FFE0546C6
:101920000298A0F201236A462146284607F088FC67
:1019300036E01D492068884232D107F01FFE054677
:101940000298A0F201236A462146284607F078FC57
:1019500026E00298B0F5A07F22D30298B0F5B07FC0
:101960001ED81049206888420BD108F09FF8054620
:101970000298A0F241136A462146284607F082FEEB
:101980000EE00949206888420AD108F08FF8054620
:101990000298A0F241136A462146284607F072FEDB
:1019A00009B030BD006400400068004070477047D7
:1019B000704770B5044694F82000012822D1022017
:1019C00084F820002068006820F001002168086089
:1019D00000F0AEFB05460DE000F0AAFB401B0A2814
:1019E00008D9606A40F400306062052084F8200065
:1019F000012070BD2068406800F001000028EBD194
:101A00006062F6E7606A40F4002060620120F0E75F
:101A1000704770477047704770477047704710B500
:101A200004460CB9012010BD607920B90020207156
:101A3000204600F005F8012060710020F3E7000067
:101A400008B50A4A016891420FD100BF00210091F8
:101A50000749096841F48051054A11601146096837
:101A600001F48051009100BF00BF08BD003002406A
:101A70003038024070B50446A56D00F059FB0646AB
:101A800094F83500022808D08020606500BF00204F
:101A900084F8340000BF012070BD2068006820F089
:101AA0001600216808602068406920F080002168E5
:101AB0004861206C08B9A06C28B12068006820F04B
:101AC0000800216808602068006820F00100216893
:101AD000086010E000F02CFB801B05280BD92020AB
:101AE0006065032084F8350000BF002084F83400CE
:101AF00000BF0320D0E72068006800F00100002844
:101B0000E8D194F85C103F208840A860012084F858
:101B1000350000BF002084F8340000BF00BFBBE7E1
:101B2000014691F83500022803D080204865012045
:101B30007047052081F835000868006820F0010032
:101B40000A6810600020F3E7F8B504460020009012
:101B50008C4800684FF41651B0FBF1F7A56D2E6864
:101B600094F85C1008208840304098B120680068E4
:101B700000F0040070B12068006820F004002168C3
:101B8000086094F85C1008208840A860606D40F000
:101B90000100606594F85C1001208840304068B115
:101BA0002068406900F0800040B194F85C1001208A
:101BB0008840A860606D40F00200606594F85C1099
:101BC00004208840304068B12068006800F00200BE
:101BD00040B194F85C1004208840A860606D40F02B
:101BE0000400606594F85C1010208840304078B3A1
:101BF0002068006800F0080050B394F85C101020D2
:101C00008840A8602068006800F4802080B12068C7
:101C1000006800F4002028B9206CC8B12046216C6F
:101C2000884715E0A06C98B12046A16C88470FE06A
:101C30002068006800F4807028B92068006820F0EF
:101C4000080021680860206C10B12046216C88478C
:101C500094F85C10202088403040002865D020682F
:101C6000006800F0100000285FD094F85C1020207D
:101C70008840A86094F83500052828D120680068BD
:101C800020F01600216808602068406920F080007C
:101C900021684861206C08B9A06C28B120680068F0
:101CA00020F008002168086094F85C103F2088400C
:101CB000A860012084F8350000BF002084F83400BB
:101CC00000BF206D10B12046216D8847F8BD206807
:101CD000006800F4802080B12068006800F40020D3
:101CE00028B9606C10B12046616C88471DE0E06B3C
:101CF000D8B12046E16B884717E02068006800F4FF
:101D0000807068B92068006820F0100021680860C1
:101D1000012084F8350000BF002084F8340000BFA3
:101D2000E06B10B12046E16B8847606D38B3606DA1
:101D300000F00100F0B1052084F83500206800684B
:101D400020F001002168086000BF0098401C00904E
:101D5000B84200D905E02068006800F001000028C2
:101D6000F3D100BF012084F8350000BF002084F8C3
:101D7000340000BFE06C10B12046E16C884700BF22
:101D8000A4E70000440000202DE9F04104460025AE
:101D900000F0CEF9074614B90120BDE8F081606A71
:101DA00000B100BF022084F8350000BF002084F895
:101DB000340000BF2068006820F00100216808603E
:101DC0000AE000F0B5F9C01B052805D920206065A0
:101DD000032084F83500E0E72068006800F0010087
:101DE0000028EED12068056821480540D4E90101AA
:101DF0000843E16808432169084361690843A16910
:101E00000843E1690843216A08430543606A0428DE
:101E100003D1D4E90B01084305432068056020681D
:101E2000456925F00705606A0543606A04280DD1FD
:101E3000A06A0543E06A48B120460AF0DFFC28B1F9
:101E400040206065012084F83500A6E720684561E0
:101E500020460AF029FD064694F85C103F20884091
:101E6000B06000206065012084F83500002094E710
:101E70003F8010F02DE9F04704460D4616461F46F8
:101E80004FF00008D4F8589000BF94F834000128AF
:101E900002D10220BDE8F087012084F8340000BFA1
:101EA00094F83500012825D1022084F8350000205F
:101EB00060653B463246294620460AF089FC94F884
:101EC0005C103F208840C9F808002068006840F096
:101ED000160021680860206C28B12068006840F076
:101EE0000800216808602068006840F0010021684F
:101EF000086006E000BF002084F8340000BF4FF007
:101F000002084046C6E7000070B5044600F010F92C
:101F100006462546681C10B104480078054400BFF9
:101F200000F006F9801BA842FAD370BD40000020E3
:101F3000F8B502460B460025002400200021D6E01B
:101F4000012606FA01F51E6806EA0504AC4274D1C2
:101F50001E7906F00306012E04D01E7906F0030652
:101F6000022E13D190684F000326BE40B0434F00AD
:101F7000DE68BE4030439060506801268E40B0431A
:101F80001E79C6F300168E40304350601E7906F06D
:101F90000306032E09D0D0684F000326BE40B0438D
:101FA0004F009E68BE403043D0601E7906F00306A5
:101FB000022E13D1CF0802F1200656F827004E0753
:101FC000F70E0F26BE40B0434F07FF0E1E69BE40FE
:101FD0003043CF0802F1200646F8270010684F0072
:101FE0000326BE40B0431E7906F003064F00BE40F4
:101FF000304310605E6806F44036002E76D000BF95
:10200000002600963C4E366846F480463A4F3E60C5
:102010003E46366806F48046009600BF00BF374E45
:102020008F0856F827008E07370F0F26BE40B043A3
:10203000334EB24202D1002624E057E0314EB24284
:1020400001D101261EE0304EB24201D1022619E034
:102050002E4EB24201D1032614E02D4EB24201D1E0
:1020600004260FE02B4EB24201D105260AE02A4E8B
:10207000B24201D1062605E0284EB24201D1072620
:1020800000E008268F073F0FBE4030431B4E8F08ED
:1020900046F82700224E3068A0435E6806F480169A
:1020A00006B120431E4E3060361D3068A0435E6886
:1020B00006F4001606B12043194E361D3060184E46
:1020C000361F3068A0435E6806F4003606B1204330
:1020D000134E361F3060361F3068A0435E6806F42A
:1020E000803606B120430E4E083E3060491C102950
:1020F000FFF426AFF8BD0000443802400838014024
:10210000000002400004024000080240000C0240AF
:10211000001002400014024000180240001C02405F
:10212000083C01400AB1816101E00B048361704702
:1021300001480068704700003800002070B5044670
:102140000CB9012070BD94F83D0028B9002084F836
:102150003C00204600F010FB242084F83D0020685D
:10216000006820F00100216808602068006840F4E1
:102170000040216808602068006820F40040216861
:10218000086001F095FB05465C496068884206D806
:102190005B48854201D2012007E0002005E0594854
:1021A000854201D2012000E00020012800D1C9E7CA
:1021B0005548B5FBF0F62068406820F03F003043FA
:1021C000216848604D496068884201D8701C07E06A
:1021D0004FF4967070434FF47A71B0FBF1F0401CED
:1021E0002168096A21F03F010843216808624349D8
:1021F0006068884214D8681E61684900B0FBF1F03D
:10220000401CC0F30B00042801D204203DE0681EEE
:1022100061684900B0FBF1F0401CC0F30B0034E0F2
:10222000A06838B9681E616801EB4101B0FBF1F0AC
:10223000401C0AE0681E616801EBC10202EB01115B
:10224000B0FBF1F0401C40F48040C0F30B0008B933
:1022500001201AE0A06848B9681E616801EB4101DD
:10226000B0FBF1F0401CC0F30B000CE0681E61688D
:1022700001EBC10202EB0111B0FBF1F0401CC0F315
:102280000B0040F4804040F400402168C9694CF6DE
:10229000FF72914308432168C861D4E907010843EC
:1022A0002168096821F0C001084321680860D4E969
:1022B000031008432168896848F2FF3291430843BC
:1022C00021688860D4E9050108432168C96821F0C4
:1022D000FF0108432168C8602068006840F00100E1
:1022E0002168086000202064202084F83D00002040
:1022F000206384F83E0000BF24E70000A0860100B0
:1023000080841E0000093D0040420F002DE9FC5F63
:1023100004460F4690469946DDE90CAB0E9EFFF74A
:1023200007FF054694F83D00202870D119230122AB
:10233000B549204600950AF010FC10B10220BDE816
:10234000FC9F00BF94F83C00012801D10220F6E771
:10235000012084F83C0000BF2068006800F0010004
:1023600028B92068006840F00100216808602068F2
:10237000006820F4006021680860222084F83D0095
:10238000402084F83E0000202064C4F824A0A4F873
:102390002AB0608D20859D48E0624B464246394612
:1023A0002046CDE900650AF099FA08B10120C6E798
:1023B000208D88B900BF00200190206840690190FD
:1023C00020688069019000BF00BF2068006840F469
:1023D00000702168086040E0208D012818D1206835
:1023E000006820F480602168086000BF0020019030
:1023F00020684069019020688069019000BF00BF9B
:102400002068006840F400702168086025E0F8E06A
:10241000208D022816D12068006820F48060216891
:1024200008602068006840F400602168086000BF10
:102430000020019020684069019020688069019027
:1024400000BF0AE000BF00200190206840690190B1
:1024500020688069019000BF00BFC3E0208D032881
:102460007ED8208D012815D12A46314620460AF013
:1024700039FC08B1012062E720680069616A0870D0
:10248000606A401C6062208D401E2085608D401E69
:102490006085A7E0208D02282AD1334600225C49BE
:1024A000204600950AF059FB08B1012047E7206853
:1024B000006840F400702168086020680069616A63
:1024C0000870606A401C6062208D401E2085608D0F
:1024D000401E608520680069616A0870606A401C5F
:1024E0006062208D401E2085608D401E608579E0F1
:1024F000334600224649204600950AF02EFB08B1DB
:1025000001201CE72068006820F4806021680860D2
:1025100020680069616A0870606A401C6062208DF2
:10252000401E2085608D401E60853346002238495C
:10253000204600950AF011FB08B10120FFE6206853
:10254000006840F400702168086020680069616AD2
:102550000870606A401C6062208D401E208500E08B
:1025600010E0608D401E608520680069616A087017
:10257000606A401C6062208D401E2085608D401E78
:1025800060852FE02A46314620460AF0ABFB08B1B1
:102590000120D4E620680069616A0870606A401C06
:1025A0006062208D401E2085608D401E6085206801
:1025B0004069C0F38000A8B1208D032805D12068B0
:1025C000006820F480602168086020680069616A02
:1025D0000870606A401C6062208D401E2085608DFE
:1025E000401E6085208D00287FF438AF202084F8BD
:1025F0003D00002084F83E0000BF84F83C0000BF8E
:102600009DE602209BE60000020010000000FFFF94
:10261000040001002DE9FC5F04460F4690469946F0
:10262000DDE90CAB0E9EFFF783FD054694F83D00F7
:1026300020287DD1192301224D49204600950AF01A
:102640008CFA10B10220BDE8FC9F00BF94F83C005A
:10265000012801D10220F6E7012084F83C0000BFE8
:102660002068006800F0010028B92068006840F088
:102670000100216808602068006820F4006021687B
:102680000860212084F83D00402084F83E000020AE
:102690002064C4F824A0A4F82AB0608D20853548B1
:1026A000E0624B46424639462046CDE900650AF0D5
:1026B000C5F908B10120C6E731E02A463146204677
:1026C0000AF0DDFA50B1206C042805D120680068BA
:1026D00040F40070216808600120B4E7606A007867
:1026E00021680861606A401C6062208D401E208560
:1026F000608D401E608520684069C0F3800070B125
:10270000208D60B1606A007821680861606A401CB1
:102710006062208D401E2085608D401E6085208D6A
:102720000028CAD12A46314620460AF075FA00E050
:102730001CE050B1206C042805D12068006840F4EA
:1027400000702168086001207DE72068006840F47F
:10275000007021680860202084F83D00002084F883
:102760003E0000BF84F83C0000BF6CE702206AE72F
:10277000020010000000FFFF10B586B004461421CF
:1027800001A8FDF716FF2A49206888424DD100BFF5
:10279000002000902748006840F0040025490860A8
:1027A0000846006800F00400009000BF00BF00BFB2
:1027B000002000900846006840F0010008600846CC
:1027C000006800F00100009000BF00BF48150190B4
:1027D0001220029000200390032004900420059012
:1027E00001A91548FFF7A4FB4FF480700190122057
:1027F000029000200390032004900420059001A97A
:102800000E48FFF795FB00BF0020009009481030EC
:10281000006840F40000074910310860084600686D
:1028200000F40000009000BF00BF06B010BD000023
:10283000005C0040303802400008024000000240C6
:102840000348006803490978084401490860704753
:10285000380000204000002010B50D48006840F40A
:1028600000700B4908600846006840F4806008600A
:102870000846006840F480700860032000F0A6F865
:102880000F2000F007F800F02BF8002010BD00002A
:10289000003C024070B504460E4800784FF47A714F
:1028A000B1FBF0F00C490968B1FBF0F5284602F0E5
:1028B0008BF908B1012070BD102C07D200222146EF
:1028C000501E00F045F80548046001E00120F2E7E1
:1028D0000020F0E740000020440000203C000020E1
:1028E00008B500BF002000900E48006840F480400A
:1028F0000C4908600846006800F48040009000BF62
:1029000000BF00BF00200090081F006840F080500A
:10291000091F08600846006800F08050009000BF62
:1029200000BF08BD443802400146084600280DDBC0
:1029300000BF00BF00F01F0301229A4043099B0023
:1029400003F1E023C3F8002100BF00BF00BF7047C0
:102950002DE9F05F80460D46164600270BF010FA71
:10296000074639462A46334601F00700C0F1070AF8
:10297000BAF1040F02D94FF0040A01E0C0F1070ACE
:10298000D14600F1040ABAF1070F02D24FF0000A53
:1029900001E0A0F1030AD4464FF0010A0AFA09FA4D
:1029A000AAF1010A0AEA020A0AFA0CFA4FF0010B2C
:1029B0000BFA0CFBABF1010B0BEA030B4AEA0B041D
:1029C000214640460BF0C8F9BDE8F09F00BF00F07B
:1029D0000702064B19684FF6FF031940044B0B43DF
:1029E00043EA0221014B196000BF70470CED00E083
:1029F0000000FA05704702461068416200207047E7
:102A0000F0B5034615461868446A21B944EA054002
:102A10001E68B06219E01868806A04EB1044002256
:102A200008E0186800F5827050F8220004EB1044AA
:102A3000501CC2B2481E9042F3D844EA05471868B9
:102A400000F582704E1E40F826700020F0BDD0F8D0
:102A5000E00403F076BB01EBC10200EB8202D0F888
:102A6000E004126A03F097BA01EBC10200EB8202A4
:102A7000D0F8E004D2F8602203F0FBBAD0F8E0040A
:102A800003F061BB2DE9F04104460D4605F08000DE
:102A9000802808D105F00F0000EBC00104F11400FC
:102AA00000EB810607E005F00F0000EBC00104F524
:102AB000157000EB81063146206804F095FB07464F
:102AC0003846BDE8F08170B504460E4606F0800039
:102AD00080280AD106F00F0000EBC00104F11400B9
:102AE00000EB81050120687009E006F00F0000EBA3
:102AF000C00104F5157000EB81050020687006F038
:102B00000F00287000BF94F89404012801D102201E
:102B100070BD012084F8940400BF2946206803F0AA
:102B2000F7FE00BF002084F8940400BF00BFEFE769
:102B300070B504460E4606F00F002179884201D98F
:102B4000012070BD06F0800080280AD106F00F0039
:102B500000EBC00104F1140000EB81050120687056
:102B600009E006F00F0000EBC00104F5157000EB62
:102B70008105002068700020A87006F00F00287002
:102B800000BF94F89404012801D10220D9E7012064
:102B900084F8940400BF2946206804F0B7F800BF09
:102BA000002084F8940400BF00BFCAE7024601F089
:102BB0000F0000EBC00302F5157000EB83004069C5
:102BC00070472DE9F04705460E4690461F464FF0E8
:102BD000000906F0800080280AD106F00F0000EB03
:102BE000C00105F1140000EB81040120607009E0D0
:102BF00006F00F0000EBC00105F5157000EB810435
:102C00000020607006F00F002070C4F80880277163
:102C1000607808B120786083022F01D100206071B4
:102C200000BF95F89404012802D10220BDE8F08786
:102C3000012085F8940400BF2146286803F0A6FD12
:102C400000BF002085F8940400BF4846EEE72DE958
:102C5000F04105460E461746984606F00F0000EB79
:102C6000C00105F5157000EB8104E760C4F8108021
:102C700000206061607006F00F002070A8790128C4
:102C800000D1E761AA792146286804F0D3F8002032
:102C9000BDE8F08170B504460D4605F00F002179BE
:102CA000884201D9012070BD05F0800080280AD13A
:102CB00005F00F0000EBC00104F1140000EB8106E9
:102CC0000120707007E005EBC50104F5157000EBFD
:102CD0008106002070700120B07005F00F00307088
:102CE00000BF94F89404012801D10220DBE7012001
:102CF00084F8940400BF3146206804F04EF805F0D3
:102D00000F0028B9A17904F29C42206803F0C6FFA5
:102D100000BF002084F8940400BF00BFC3E72DE982
:102D2000F04105460E461746984606F00F0000EBA8
:102D3000C00105F1140000EB8104E760C4F81080C5
:102D4000002060610120607006F00F002070A879FB
:102D5000012800D1E761AA792146286804F06AF8C1
:102D60000020BDE8F0812DE9FE4F0446D4F800B004
:102D70005E46206804F01AFB002874D1206804F035
:102D800054FB08B9BDE8FE8F40F608008059C0F337
:102D90000D20C4F8D404206804F047FB00F00200C2
:102DA000022805D12068406900F0020021684861CE
:102DB000206804F03AFB00F01000102845D120688C
:102DC000806920F0100021688861DBF8209009F00C
:102DD0000F0000EBC00104F5157000EB810AC9F388
:102DE000434002281AD147F6F07009EA000030B3D8
:102DF000C9F30A125846DAF80C1004F01BFBC9F3A9
:102E00000A11DAF80C000844CAF80C00C9F30A11D8
:102E1000DAF814000844CAF8140010E0C9F343407B
:102E200006280CD1082204F29C41584604F002FB0B
:102E3000C9F30A11DAF814000844CAF8140020682B
:102E4000806940F0100021688861206804F0EDFA84
:102E500000F40020B0F5002F7BD10025206804F09D
:102E6000B4FA029072E0E1E2029800F0010000285A
:102E700068D0E9B2206804F0CBFA804608F001007F
:102E800048B1012106F5306000EB4510816029460C
:102E900020460AF077F808F00800082809D1082130
:102EA00006F5306000EB45108160294620460AF0A7
:102EB00037F808F01000102805D1102106F5306011
:102EC00000EB4510816008F00200022824D1DBF8F5
:102ED000140000F08000802807D140F604008059DB
:102EE00040F4806140F60400815105EBC50104F512
:102EF000157000EB810A9AF80300012806D1002022
:102F00008AF80300E9B2204600F096FA022106F59D
:102F1000306000EB4510816008F02000202805D1CA
:102F2000202106F5306000EB4510816008F4005068
:102F3000B0F5005F06D14FF4005106F5306000EBAC
:102F4000451081606D1C029840080290029800288C
:102F50008AD1206804F069FA00F48020B0F5802F4F
:102F60007DD1206804F027FA029000259AE00298AB
:102F700000F00100002873D0E9B2206804F02FFAB5
:102F8000804608F00100F0B305F00F0101208840F1
:102F9000019040F634008159019821EA000040F682
:102FA00034018851012106F5106000EB4510816065
:102FB000A079012824D105EBC50104F1140000EB30
:102FC000810005EBC502C16804F1140000EB82002A
:102FD0008068014405EBC50204F1140000EB820097
:102FE000C1606DB905EBC50104F1140000EB81006F
:102FF000006928B904F29C420121206803F04EFECA
:10300000E9B2204600E001E0FFF725FD08F00800E6
:10301000082805D1082106F5106000EB45108160F5
:1030200008F01000102805D1102106F5106000EB03
:103030004510816008F04000402805D1402106F588
:10304000106000EB4510816008F0020002281DD1DD
:103050002946584604F06DF905EBC50101E025E06D
:103060001CE004F1140000EB810A9AF80300012827
:1030700006D100208AF80300E9B2204600F0D8F912
:10308000022106F5106000EB4510816008F0800019
:10309000802803D12946204609F0E6FE6D1C0298DF
:1030A00040080290029800287FF461AF206804F085
:1030B000BCF900F00040B0F1004F1CD140F6040014
:1030C000805920F0010140F60400815194F8CC04AD
:1030D000012807D1002084F8CC0400212046FFF706
:1030E00089FC02E0204600F0B4FA2068406900F054
:1030F000004021684861206804F097F900F40060FE
:10310000B0F5006F0ED140F60800805900F00100C4
:1031100010B1204600F0ECFA2068406900F400602D
:1031200021684861206804F080F900F48050B0F50F
:10313000805F7ED140F60400805920F0010140F606
:10314000040081511021206804F0F3F8002732E0D8
:103150004FF67F3106F5106000EB4710816006F5F1
:10316000106000EB4710006820F4001106F51060B5
:1031700000EB471001604FF67F3106F5306000EB41
:103180004710816006F5306000EB4710006820F4BE
:10319000001106F5306000EB4710016006F5306065
:1031A00000EB4710006840F0006106F5306000EB6E
:1031B000471001607F1C2079B842C9D840F61C0036
:1031C000805940F0011140F61C008151E07B70B144
:1031D000D6F8840840F00B01C6F8841840F6440085
:1031E000805940F00B0140F6440081510FE040F659
:1031F0001400805942F22B01084340F61401885113
:10320000081F805940F00B014FF401608151D6F83E
:10321000000820F4FE60C6F80008A17904F29C4280
:10322000206803F03BFD2068406900F4805021686D
:1032300000E000E04861206804F0F7F800F4005076
:10324000B0F5005F17D1206803F008FB206804F098
:103250009AF8E07100F026FB0090E279206800996E
:1032600004F06AF9204600F0DDF92068406900F4B6
:10327000005021684861206804F0D7F800F0080089
:10328000082808D1204600F0E8F92068406900F0DD
:10329000080021684861206804F0C7F800F0800049
:1032A000802818D1DBF8180020F08000CBF8180037
:1032B00001250DE005EBC50104F5157000EB81005B
:1032C000C078012803D1E9B22046FFF7DBFB6D1C73
:1032D0002079A842EED8206804F0A7F800F4801006
:1032E000B0F5801F2DD1012522E006F5106000EB1E
:1032F0004510D0F8009005EBC50104F1140000EB77
:1033000081000079012812D109F00040B0F1004F8E
:103310000DD1012105EBC50204F1140000EB820080
:10332000C170E8B240F080012046FFF7ABFB6D1C96
:103330002079A842D9D82068406900F4801021681B
:103340004861206804F071F800F40010B0F5001F27
:1033500044D1012538E006F5306000EB4510D0F887
:10336000009005EBC50104F5157000EB81000079B4
:10337000012828D109F00040B0F1004F23D109F411
:10338000803094F8D41401F0010188421BD101214E
:1033900005EBC50204F5157000EB8200C170DBF887
:1033A000180040F08000CBF81800DBF8140000F0A3
:1033B000800040B940F60400805940F4007140F6A6
:1033C0000400815103E06D1C2079A842C3D800BFDE
:1033D0002068406900F4001021684861206804F00A
:1033E00024F800F08040B0F1804F08D12046FFF76C
:1033F0002EFB2068406900F0804021684861206809
:1034000004F013F800F0040004280FD12068D0F86D
:10341000049009F00400042802D12046FFF72EFB97
:103420002068406840EA09002168486000BFA9E4BC
:10343000D0F8E00402F0DCBED0F8E00402F0EDBE0B
:10344000F8B504460CB90120F8BD266894F8950437
:1034500028B9002084F89404204600F0A1F8032045
:1034600084F89504B6F1A04F01D10021A171206824
:1034700003F00CFC207C8DF8000094E80F0003F0B2
:1034800001FA20B1022084F895040120DCE7002134
:10349000206803F0FFFF20B1022084F8950401208A
:1034A000D2E7002531E0012105EBC50204F114004B
:1034B00000EB8200417005EBC50104F1140000F837
:1034C000215005EBC50100EB81004583002105EB90
:1034D000C50204F1140000EB8200017105EBC50286
:1034E00004F1140000EB8200816005EBC50204F1D9
:1034F000140000EB8200C16005EBC50204F114006A
:1035000000EB82000161681CC5B22079A842CADCC8
:1035100000252AE0002105EBC50204F5157000EB3B
:103520008200417005EBC50104F5157000F82150CB
:10353000002105EBC50200EB8200017105EBC5021D
:1035400004F5157000EB8200816005EBC50204F5FF
:10355000157000EB8200C16005EBC50204F5157023
:1035600000EB82000161681CC5B22079A842D1DC61
:10357000207C8DF8000094E80F0003F093FA20B14E
:10358000022084F8950401205EE700206074012089
:1035900084F89504206803F073FA002054E70000D3
:1035A00000B587B000210291039104910591069125
:1035B0000068B0F1A04F2BD11648016841F001011D
:1035C0000160006800F0010001904FF4C0500290CB
:1035D00002200390032005900A20069002A90E48BD
:1035E000FEF7A6FC0D48016841F0800101600C481F
:1035F000016841F480410160006800F4804001905E
:10360000002211464320FFF7A3F94320FFF78CF96E
:1036100007B000BD3038024000000240343802409C
:103620004438024070B504460125E07900280ED0E8
:10363000022801D0FDF783FC2946D4F8E00402F00B
:103640005DFED4F8E004BDE8704002F010BE002535
:10365000F2E7D0F8E00402F03ABED0F8E00402F05D
:1036600040BE70B504460D4600BF94F8940401288E
:1036700001D1022070BD012084F8940400BF65745C
:103680002946206803F03AFF00BF002084F8940424
:1036900000BF00BFEEE7D0F8E02400F29C411046E6
:1036A00002F038BE70B50446256800BF94F8940453
:1036B000012801D1022070BD012084F8940400BFCC
:1036C000E86800F0400030B1607B012803D1A86BAE
:1036D00040F48030A863206803F0FCFD206803F00C
:1036E000BDF900BF002084F8940400BF00BFE2E7EA
:1036F00010B50446D4F8E00402F050FE2068D0F87B
:10370000001E41F00101C0F8001EE07A002804D03C
:103710000248016841F00601016010BD10ED00E0B3
:1037200070B504460D460CB9012070BD58480068BC
:1037300000F00700A84209D255490D7008460068FC
:1037400000F00700A84201D00120EEE7207800F049
:10375000020002281DD1207800F00400042805D1C1
:103760004C48006840F4E0504A490860207800F076
:103770000800082805D14748006840F460404549E2
:1037800008604448006820F0F000A16808434149FF
:103790000860207800F00100A8B36068012807D114
:1037A0003C4808380068C0F34040B8B90120BCE785
:1037B0006068022802D06068032807D135480838BD
:1037C0000068C0F3406048B90120AEE731480838CE
:1037D0000068C0F3400008B90120A6E72D48006842
:1037E00020F00300616808432A490860FEF7A0FC46
:1037F000064609E0FEF79CFC801B41F288318842B6
:1038000002D9032091E707E02248006800F00C008D
:103810006168B0EB810FEDD11D48006800F0070032
:10382000A84209D91A490D700846006800F007003F
:10383000A84201D0012078E7207800F00400042895
:1038400007D11448006820F4E050E16808431149AA
:103850000860207800F00800082808D10D480068AA
:1038600020F46040216940EAC1000A49086000F084
:103870003FF808490968C1F30311074A515CC84081
:103880000649086006480068FFF704F800204CE786
:10389000003C024008380240E40A010844000020CD
:1038A0003C000020014800687047000044000020F0
:1038B00000B5FFF7F7FF04490968C1F38221034A05
:1038C000515CC84000BD000008380240F40A0108FD
:1038D00000B5FFF7E7FF04490968C1F34231034A25
:1038E000515CC84000BD000008380240F40A0108DD
:1038F0002DE9F047002400250026A1462548006850
:1039000000F00C0020B1042805D008283AD105E0C9
:10391000DFF8849039E0DFF8849036E01D48001F1E
:10392000006800F03F041B48001F006800F480009E
:1039300078B11A481749091F0968C1F38811A0FB1B
:1039400001700146224600233846FCF70BFD054670
:103950000EE011480F49091F0968C1F38811A0FB47
:1039600001700146224600233846FCF7FBFC054661
:103970000848001F0068C0F30140401C4600B5FB2A
:10398000F6F902E0DFF8109000BF00BF4846BDE83E
:10399000F0870000083802400024F400001BB70044
:1039A000F8B504460CB90120F8BD207800F00100FC
:1039B000002874D0F948006800F00C0004280DD0ED
:1039C000F648006800F00C00082813D1F348001FE7
:1039D000006800F48000B0F5800F0BD1EF48083884
:1039E0000068C0F34040002859D06068002856D1D4
:1039F0000120D9E700BF6068B0F5803F08D1E748F3
:103A00000838006840F48030E449083908601EE056
:103A10006068B0F5A02F0DD1E0480838006840F488
:103A20008020DE49083908600846006840F480308C
:103A300008600CE0D9480838006820F48030D74985
:103A4000083908600846006820F48020086000BF3C
:103A5000606890B1FEF76CFB054606E0FEF768FB78
:103A6000401B642801D903209EE7CC480838006831
:103A7000C0F340400028F1D011E0FEF759FB0546A5
:103A800006E0FEF755FB401B642801D903208BE7B5
:103A9000C24808380068C0F340400028F1D12078BF
:103AA00000F0020002285FD1BC48006800F00C0062
:103AB00058B1BA48006800F00C0008281CD1B7487B
:103AC000001F006800F48000B0B9B44808380068EE
:103AD000C0F3400020B1E068012801D0012063E775
:103AE000AE480838006820F0F800216940EAC100BB
:103AF000AA490839086037E0E06800B30120A84906
:103B00000860FEF715FB054606E0FEF711FB401BBB
:103B1000022801D9032047E7A04808380068C0F30D
:103B200040000028F1D09D480838006820F0F800D7
:103B3000216940EAC10099490839086014E0002071
:103B400097490860FEF7F4FA054606E0FEF7F0FA3A
:103B5000401B022801D9032026E790480838006856
:103B6000C0F340000028F1D1207800F008000828B8
:103B70002CD16069A8B101208A490860FEF7D8FA03
:103B8000054606E0FEF7D4FA401B022801D90320BF
:103B90000AE782486C300068C0F340000028F1D08A
:103BA00014E000207F490860FEF7C2FA054606E0EF
:103BB000FEF7BEFA401B022801D90320F4E677483D
:103BC0006C300068C0F340000028F1D1207800F08C
:103BD0000400042870D1002770483830006800F0D5
:103BE000805090B900BF002000906C4838300068C9
:103BF00040F080506949383108600846006800F09C
:103C00008050009000BF00BF01276748006800F4A3
:103C10008070B0B96448006840F480706249086000
:103C2000FEF786FA054606E0FEF782FA401B0228F8
:103C300001D90320B8E65C48006800F480700028D1
:103C4000F2D000BFA068012808D15448683000684D
:103C500040F001005149683108601DE0A068052866
:103C60000DD14E486830006840F004004B4968317F
:103C700008600846006840F0010008600CE0474812
:103C80006830006820F00100444968310860084647
:103C9000006820F00400086000BFA068A8B1FEF72B
:103CA00047FA054609E0FEF743FA401B41F2883126
:103CB000884202D9032077E626E038486830006859
:103CC000C0F340000028EED013E0FEF731FA0546BD
:103CD00008E0FEF72DFA401B41F28831884201D9F5
:103CE000032061E62D4868300068C0F340000028DA
:103CF000EFD1012F07D129483830006820F08050DB
:103D000026493831086000BFA069002845D0234803
:103D1000006800F00C0008285DD0A069022845D199
:103D200000201F490866FEF703FA054606E0FEF785
:103D3000FFF9401B022801D9032035E6174808384F
:103D40000068C0F340600028F1D1D4E907010843BE
:103D5000616A40EA81110122A06AC2EB500041EA87
:103D600000412C20005D41EA00600C49091F0860F9
:103D700001200B490866FEF7DBF9054606E0FEF771
:103D8000D7F9401B022801D903200DE60348083863
:103D90000068C0F340600028F1D049E008380240D4
:103DA00000004742800E4742007000400020214939
:103DB0000866FEF7BDF9054606E0FEF7B9F9401BB7
:103DC000022801D90320EFE51B480068C0F34060DA
:103DD0000028F2D12CE0A069012800D1E4E51648C2
:103DE000001D0668A069012820D006F48001E06962
:103DF00081421BD106F03F01206A814216D147F66D
:103E0000C0703040616AB0EB811F0FD106F44031C1
:103E10000122A06AC2EB5000B1EB004F06D106F0C0
:103E200070612C20005DB1EB006F01D00120BBE57B
:103E30000020B9E5000047420038024070470146C3
:103E400091F85100704710B504460CB9012010BD1F
:103E5000606A38B96068B0F5827F00D105E0002162
:103E6000E16102E00021216161610021A16294F819
:103E7000510028B9002084F85000204600F048F88E
:103E8000022084F851002068006820F0400021687A
:103E90000860A08800F48270218901F4044108437D
:103EA000A18901F400610843217C01F0020108436B
:103EB000217D01F001010843218B01F400710843C9
:103EC000217F01F0380108432021095D01F08001C4
:103ED0000843218D01F40051084321680860042142
:103EE000A06901EA104094F8241001F01001084381
:103EF000216848602068C06920F400602168C861BA
:103F000000206065012084F8510000209FE7000038
:103F100010B586B00446142101A8FCF74AFB4849B5
:103F2000206888427ED100BF00200090454800688C
:103F300040F48050434908600846006800F480500F
:103F4000009000BF00BF00BF002000903D48143823
:103F5000006840F002003B491439086008460068D8
:103F600000F00200009000BF00BF00BF00200090E2
:103F70000846006840F0010008600846006800F04C
:103F80000100009000BF00BF1820019002200290A5
:103F900000200390032004900520059001A92A48E1
:103FA000FDF7C6FF802001900220029000200390C0
:103FB000032004900520059001A92448FDF7B8FFCF
:103FC0002348244908604FF0C06048600021214820
:103FD0008160C1604FF480610161002141618161B4
:103FE000C16101624162FDF7CFFE08B1FCF7A7FF96
:103FF00000BF1848E064846300BF15484830164984
:1040000008604FF0C0604860402113488160002183
:10401000C1604FF480610161002141618161C16132
:10402000016200E00AE04162FDF7AEFE08B1FCF774
:1040300086FF00BF0848A064846300BF06B010BDBF
:1040400000300140443802400004024000000240B9
:104050001064024094030020F40300202DE9F8438B
:104060000446884616461D464FF0000994F8510054
:10407000012802D04FF00209A8E06068B0F5827F05
:104080000DD1A06858B9042084F851003346424647
:1040900041462046009500F077FABDE8F88300BF5E
:1040A00094F85000012801D10220F6E7012084F89D
:1040B000500000BFFEF73CF80746B8F1000F00D0F3
:1040C00016B94FF0010981E0042084F85100002066
:1040D0006065C4F83880A687E6872063A086E086FE
:1040E00020646064A068B0F5004F0BD120680068C0
:1040F00020F04000216808602068006820F48040BB
:10410000216808602068006800F04000402805D061
:104110002068006840F0400021680860E06810BB3B
:104120001DE02068806800F0010050B12068007B2D
:10413000A16B0870A06B401CA063E08F401EE0875D
:104140000DE0FDF7F5FFC01BA84201D3681C00B9C4
:104150002DB94FF00309012084F8510036E0E08FBB
:104160000028DED121E01DE02068806800F0010019
:1041700050B12068C068A16B0880A06B801CA06350
:10418000E08F401EE0870DE0FDF7D2FFC01BA84284
:1041900001D3681C00B92DB94FF00309012084F840
:1041A000510013E0E08F0028DED13A462946204630
:1041B00009F076F908B120206065606D10B14FF00C
:1041C000010902E0012084F8510000BF00BF002077
:1041D00084F8500000BF48465FE700002DE9F04139
:1041E00004460E461546002794F85100012801D0D8
:1041F000022770E0A06870B96068B0F5827F0AD1CC
:10420000042084F851002B4632463146204600F007
:10421000DBFABDE8F08100BF94F85000012801D11D
:104220000220F6E7012084F8500000BF06B10DB966
:10423000012750E0042084F8510000206065A66347
:10424000A587E58720646064A086E086A068B0F555
:10425000004F0BD12068006820F040002168086002
:104260002068006820F48040216808601D48E16CE7
:1042700008641D48E16CC8631C48E16CC8640020F8
:10428000E16C0865E38FD4F800C00CF10C01A26B5F
:10429000E06CFDF7EFFD28B1606D40F01000606547
:1042A000012718E02068006800F04000402805D091
:1042B0002068006840F0400021680860206840687D
:1042C00040F02000216848602068406840F001000C
:1042D0002168486000BF00BF002084F8500000BF84
:1042E000384696E79DD500083DD30008C9D00008A0
:1042F000F0B504460E461546002794F851000128F3
:1043000001D0022759E0A06868B96068B0F5827FE3
:1043100009D1042084F851002B463246314620460C
:1043200000F002FBF0BD06B10DB9012745E000BF6A
:1043300094F85000012801D10220F3E7012084F80D
:10434000500000BF042084F8510000206065A6637F
:10435000A587E5872063A086E0866064E06810B1E9
:104360001748206401E017482064A068B0F5004FAA
:104370000BD12068006820F04000216808602068A8
:10438000006820F48040216808602068006800F020
:104390004000402805D02068006840F040002168B7
:1043A000086000BF002084F8500000BF206840680B
:1043B00040F060002168486000BF3846B2E7000066
:1043C00039D20008F1D00008704770472DE9F84F46
:1043D0000446884616461D464FF0000A00BF94F872
:1043E0005000012802D10220BDE8F88F012084F896
:1043F000500000BFFDF79CFE0746B14694F85100FF
:10440000012802D04FF0020AB7E0B8F1000F00D047
:1044100016B94FF0010AB0E0032084F851000020E3
:104420006065C4F83080A686E686A063A087E08732
:1044300060642064A068B0F5004F0BD1206800686C
:1044400020F04000216808602068006840F4804047
:10445000216808602068006800F04000402805D00E
:104460002068006840F0400021680860E068B0F50E
:10447000006F32D1606810B1B9F1010F09D1206B22
:1044800000882168C860206B801C2063E08E401E7D
:10449000E0861EE02068806800F0020002280AD151
:1044A000206B00882168C860206B801C2063E08E30
:1044B000401EE0860DE0FDF73BFEC01BA84201D385
:1044C000681C00B92DB94FF0030A012084F851008F
:1044D00053E0E08E0028DDD131E0606810B1B9F121
:1044E000010F09D1206B007821680873206B401CF4
:1044F0002063E08E401EE0861EE02068806800F0A9
:10450000020002280AD1206B007821680873206B12
:10451000401C2063E08E401EE0860DE0FDF708FEA3
:10452000C01BA84201D3681C00B92DB94FF0030A83
:10453000012084F8510020E0E08E0028DDD13A46C9
:104540002946204609F032F808B120206065A068AD
:1045500050B900BF002000902068C068009020681B
:104560008068009000BF00BF606D10B14FF0010A7D
:1045700002E0012084F8510000BF00BF002084F851
:10458000500000BF50462FE72DE9FF5F04468846E4
:1045900091461D460E9E012002900020019000BF12
:1045A00094F85000012803D1022004B0BDE8F09F28
:1045B000012084F8500000BFFDF7BAFD074694F8CB
:1045C00051B060680390AA46BBF1010F0BD003986D
:1045D000B0F5827F04D1A06810B9BBF1040F02D0FE
:1045E00002200190E9E0B8F1000F03D0B9F1000F0B
:1045F00000D015B901200190DFE094F851000428A3
:1046000002D0052084F8510000206065C4F838907D
:10461000E587A587C4F83080E586A58620646064B8
:104620002068006800F04000402805D0206800683D
:1046300040F0400021680860E068B0F5006F4DD19F
:10464000606810B1BAF1010F09D1206B00882168B0
:10465000C860206B801C2063E08E401EE08636E040
:104660002068806800F00200022810D1E08E70B14E
:10467000029801280BD1206B00882168C860206B4C
:10468000801C2063E08E401EE0860020029020689F
:10469000806800F0010068B1E08F58B12068C06800
:1046A000A16B0880A06B801CA063E08F401EE08798
:1046B00001200290FDF73CFDC01BB04207D3701CE7
:1046C00028B103200190012084F8510075E0E08EAC
:1046D0000028C5D1E08F0028C2D14DE0606810B13C
:1046E000BAF1010F09D1206B007821680873206BA3
:1046F000401C2063E08E401EE08637E02068806822
:1047000000F00200022810D1E08E70B1029801285A
:104710000BD1206B007821680873206B401C20634C
:10472000E08E401EE086002002902068806800F045
:10473000010068B1E08F58B12068C068A16B0870B3
:10474000A06B401CA063E08F401EE0870120029018
:10475000FDF7EEFCC01BB04201D3701C00B92EB9AE
:1047600003200190012084F8510026E0E08E00280B
:10477000C4D1E08F0028C1D13A463146204608F026
:1047800015FF20B1012001902020606515E0A06890
:1047900050B900BF002000902068C06800902068D9
:1047A0008068009000BF00BF606D10B101200190D3
:1047B00002E0012084F8510000BF00BF002084F80F
:1047C000500000BF0198F0E62DE9F04704460E4680
:1047D00017461D464FF0000A00BF94F8500001280C
:1047E00002D10220BDE8F087012084F8500000BF0C
:1047F00094F85180D4F80490B8F1010F0AD0B9F5BB
:10480000827F04D1A06810B9B8F1040F02D04FF034
:10481000020A77E00EB107B115B94FF0010A71E055
:1048200094F85100042802D0052084F8510000209B
:1048300060652663A586E586A763A587E58720646E
:10484000606494F85100042806D13248E16C086491
:104850003148E16CC86305E03048E16C08643048D9
:10486000E16CC8632F48E16CC8640020E16C086506
:10487000E38FD4F800C00CF10C01A26BE06CFDF7E3
:10488000F9FA30B1606D40F0100060654FF0010A38
:1048900038E02068406840F001002168486000204E
:1048A000A16C0864A16CC863A16CC864A16C0865A4
:1048B000E38ED4F800C00CF10C02216BA06CFDF764
:1048C000D9FA30B1606D40F0100060654FF0010A18
:1048D00018E02068006800F04000402805D02068FB
:1048E000006840F04000216808602068406840F09F
:1048F0002000216848602068406840F0020021687C
:10490000486000BF00BF002084F8500000BF504640
:1049100068E700009DD500083DD3000885D7000852
:1049200043D60008C9D00008F0B50446002794F823
:1049300051506668012D08D0B6F5827F03D1A0687A
:1049400008B9042D01D0022745E009B102B10BB925
:10495000012740E000BF94F85000012801D1022057
:10496000F0BD012084F8500000BF94F851000428E5
:1049700002D0052084F85100002060652163A386E1
:10498000E386A263A387E387E06820B1134820642D
:104990001348606403E0134820641348606420688F
:1049A000006800F04000402807D02068006840F010
:1049B0004000D4F800C0CCF8000000BF002084F80C
:1049C000500000BF2068406840F0E000D4F800C00C
:1049D000CCF8040000BF3846C2E7000035D5000817
:1049E00069D5000839D400086DD400082DE9F041DC
:1049F00004460E461546002700BF94F850000128D3
:104A000002D10220BDE8F081012084F8500000BFEF
:104A100094F85100012801D0022755E006B10DB9E4
:104A2000012751E0032084F85100002060652663CF
:104A3000A586E586A06360642064A087E087A068FF
:104A4000B0F5004F0BD12068006820F040002168CD
:104A500008602068006840F48040216808601E48B3
:104A6000A16C08641D48A16CC8631D48A16CC86492
:104A70000020A16C0865E38ED4F800C00CF10C0294
:104A8000216BA06CFDF7F6F928B1606D40F01000C5
:104A90006065012718E02068006800F040004028A9
:104AA00005D02068006840F0400021680860206858
:104AB000406840F02000216848602068406840F06D
:104AC00002002168486000BF00BF002084F8500049
:104AD00000BF384696E7000035D60008B9D3000875
:104AE000C9D0000830B50346002401B10AB9012439
:104AF0004BE093F85100012801D0022445E000BFAB
:104B000093F85000012801D1022030BD012083F824
:104B1000500000BF032083F851000020586519633E
:104B20009A86DA8698639887D8871864D86810B10F
:104B30001748586401E0174858649868B0F5004F6A
:104B40000BD11868006820F040001D6828601868C4
:104B5000006840F480401D6828601868006800F014
:104B60004000402805D01868006840F040001D68EB
:104B7000286000BF002083F8500000BF186840681C
:104B800040F0A0001D68686000BF2046BDE700003F
:104B90005DD2000815D10008704770477047704714
:104BA000042808D14FF0E021096941F004014FF0D9
:104BB000E022116107E04FF0E021096921F00401D2
:104BC0004FF0E0221161704770B504462546681E1B
:104BD000B0F1807F01D301200FE0681E4FF0E0218B
:104BE00048610F214FF0FF3009F0B6F800204FF078
:104BF000E021886107200861002070BD7047704780
:104C000010B50346002200BF93F83C00012801D1F3
:104C1000022010BD012083F83C0000BF22F0FF00FD
:104C2000CC6840EA040222F440708C6840EA040236
:104C300022F480604C6840EA040222F400600C68B0
:104C400040EA040222F480500C6940EA040222F493
:104C500000504C6940EA040222F48040CC6940EAEA
:104C600004021868426400BF002083F83C0000BFC3
:104C700000BFCEE730B502460B4600BF92F83C00BD
:104C8000012801D1022030BD012082F83C0000BF84
:104C9000022082F83D00106844681068816824F0A2
:104CA00070041868044310684460184D1068A842E6
:104CB0001BD01068B0F1804F17D0154D1068A84276
:104CC00013D0144D1068A8420FD0134D1068A8429D
:104CD0000BD0124D1068A84207D0114D1068A842A1
:104CE00003D0104D1068A84205D121F0800158680A
:104CF000014310688160012082F83D0000BF002060
:104D000082F83C0000BF00BFBDE70000000001408A
:104D10000004004000080040000C00400004014076
:104D2000004001400018004010B504460CB90120B5
:104D300010BD94F83D0028B9002084F83C002046BE
:104D400000F026F8022084F83D00211D206800F0C4
:104D500033FF012084F8460000BF84F83E000121A3
:104D60003F200155402001554120015500BF00BFA3
:104D7000012084F84200432001554420015545207C
:104D8000015500BF012084F83D000020D0E700005D
:104D900038B504463849206888420FD100BF00204A
:104DA00000903648006840F0010034490860084629
:104DB000006800F00100009000BF5CE02068B0F1E6
:104DC000804F1AD100BF002000902C48001F0068BF
:104DD00040F001002949091F08600846006800F0FA
:104DE0000100009000BF00BF002211461C20FDF70B
:104DF000AFFD1C20FDF798FD3DE021492068884269
:104E000011D100BF002000901C48001F006840F036
:104E100008001A49091F08600846006800F00800E9
:104E2000009000BF27E01749206888420FD100BFDB
:104E3000002000901148006840F002000F4908600F
:104E40000846006800F00200009000BF13E00E4921
:104E5000206888420FD100BF0020009007480068FA
:104E600040F40030054908600846006800F400304E
:104E7000009000BF00BF38BD000001404438024030
:104E8000000C00400004014000440140014691F83C
:104E90003D00012801D001207047022081F83D002B
:104EA0000868C06840F001000B68D8601A4B0868B9
:104EB00098421BD00868B0F1804F17D0174B086894
:104EC000984213D0164B086898420FD0154B0868CB
:104ED00098420BD0144B0868984207D0134B0868CF
:104EE000984203D0124B086898420CD10868806839
:104EF00000F00702062A0CD00868006840F00100A4
:104F00000B68186005E00868006840F001000B6855
:104F100018600020C0E700000000014000040040CD
:104F200000080040000C0040000401400040014027
:104F3000001800402DE9F04104460D46002700BF4F
:104F400094F83C00012802D10220BDE8F081012044
:104F500084F83C0000BF022084F83D002068866889
:104F600026F0770626F47F46206886602868502859
:104F700033D00CDC202850D004DC00284BD0102883
:104F800051D149E0302849D040284CD139E060283F
:104F90002DD0702807D0B0F5805F03D0B0F5005F4A
:104FA00041D10DE041E0D5E902136A68206800F0C4
:104FB00088FE2068866846F077062068866034E0C0
:104FC000D5E902136A68206800F07BFE20688068DB
:104FD00040F480402168886027E0EA6869682068BA
:104FE00008F07FFC5021206808F072FC1DE0EA68A0
:104FF0006968206808F088FC6021206808F068FC77
:1050000013E0EA686968206808F06BFC40212068BA
:1050100008F05EFC09E000BF00BF00BF29682068FF
:1050200008F056FC01E0012700BF00BF012084F812
:105030003D0000BF002084F83C0000BF384684E7F4
:10504000704770B504462068C5682068066906F098
:105050000200022819D105F00200022815D1401FD4
:1050600021680861012020772068806900F0030032
:1050700018B12046FFF7E4FF05E0204600F074F980
:10508000204600F075FA0020207706F0040004287E
:1050900019D105F00400042815D1C0432168086126
:1050A000022020772068806900F4407018B1204603
:1050B000FFF7C6FF05E0204600F056F9204600F055
:1050C00057FA0020207706F00800082819D105F0CB
:1050D0000800082815D1C043216808610420207702
:1050E0002068C06900F0030018B12046FFF7A8FF50
:1050F00005E0204600F038F9204600F039FA00209B
:10510000207706F01000102819D105F010001028A3
:1051100015D1C04321680861082020772068C06944
:1051200000F4407018B12046FFF78AFF05E02046E2
:1051300000F01AF9204600F01BFA0020207706F054
:10514000010048B105F0010030B16FF001002168A5
:105150000861204600F094FA06F08000802809D10A
:1051600005F08000802805D1C043216808612046F1
:10517000FFF744FD06F04000402809D105F040004B
:10518000402805D1C04321680861204600F079FA23
:1051900006F02000202809D105F02000202805D1A4
:1051A000C043216808612046FFF729FD70BD00005B
:1051B00010B586B00446142101A8FBF7FAF9454959
:1051C000206888421ED100BF00200090424800683D
:1051D00040F01000404908600846006800F01000E8
:1051E000009000BF00BF4FF4D44001900220029015
:1051F0000020039004900120059001A93748FCF796
:1052000097FE65E03649206888421ED100BF002025
:1052100000903148006840F008002F4908600846B7
:10522000006800F00800009000BF00BF4FF480400D
:10523000019002200290002003900490022005902B
:1052400001A92848FCF774FE42E0274920688842FB
:105250001DD100BF002000901F48006840F48070FE
:105260001D4908600846006800F48070009000BF87
:1052700000BFE020019002200290002003900490E3
:105280000320059001A91948FCF752FE20E01849B7
:10529000206888421CD100BF002000900E480068A2
:1052A00040F020000C4908600846006800F020002B
:1052B000009000BF00BF402001900220029000201B
:1052C000039004900320059001A90A48FCF730FEE2
:1052D00006B010BD0000014030380240001002400E
:1052E00000080040000C0240000401400020024081
:1052F00000440140001402402DE9F04104460E46EE
:105300001546002700BF94F83C00012802D1022076
:10531000BDE8F081012084F83C0000BF35B1042DC8
:1053200009D0082D0CD00C2D14D10EE03146206888
:1053300008F030FA10E03146206800F0CDFC0BE0B8
:105340003146206808F05EFA06E03146206808F031
:1053500095FA01E0012700BF00BF00BF002084F8DC
:105360003C0000BF3846D3E7704710B504460CB97F
:10537000012010BD94F83D0028B9002084F83C00BD
:10538000204600F025F8022084F83D00211D206809
:1053900000F012FC012084F8460000BF84F83E00B3
:1053A00001213F200155402001554120015500BFFA
:1053B00000BF012084F842004320015544200155DC
:1053C0004520015500BF012084F83D000020D0E7B2
:1053D00070472DE9F04104460D461646002700BFF0
:1053E00094F83C00012802D10220BDE8F0810120A0
:1053F00084F83C0000BF36B1042E1BD0082E31D0FB
:105400000C2E5ED145E02946206808F0C3F92068DB
:10541000806940F00800216888612068806920F078
:10542000040021688861206880692969084321682F
:10543000886148E02946206800F04EFC20688069B9
:1054400040F40060216888612068806920F48060F1
:105450002168886120688069296940EA0120216803
:10546000886130E02946206808F0CCF92068C069DE
:1054700040F008002168C8612068C06920F004007D
:105480002168C8612068C069296908432168C8612A
:1054900019E02946206808F0F1F92068C06940F455
:1054A00000602168C8612068C06920F480602168BC
:1054B000C8612068C069296940EA01202168C86183
:1054C00001E0012700BF00BF00BF002084F83C00BE
:1054D00000BF384689E710B504460CB9012010BD5D
:1054E00094F83D0028B9002084F83C00204600F0E4
:1054F00025F8022084F83D00211D206800F05CFBA7
:10550000012084F8460000BF84F83E0001213F20BE
:105510000155402001554120015500BF00BF012029
:1055200084F842004320015544200155452001558F
:1055300000BF012084F83D000020D0E708B50A4AEA
:10554000016891420FD100BF00210091074909680D
:1055500041F00401054A11601146096801F0040197
:10556000009100BF00BF08BD000800404038024065
:105570007047000070B504460D4615B994F83E001A
:105580000BE0042D02D13F20005D06E0082D02D182
:105590004020005D01E04120005D012801D0012094
:1055A00070BD1DB9022084F83E000EE0042D03D129
:1055B00002213F20015508E0082D03D1022140209F
:1055C000015502E0022141200155012229462068AF
:1055D00000F066FB23492068884203D022492068F6
:1055E000884201D1012000E0002028B12068406CF1
:1055F00040F40040216848641A49206888421BD062
:105600002068B0F1804F17D018492068884213D025
:105610001749206888420FD01649206888420BD06D
:1056200011492068884207D013492068884203D076
:105630001249206888420CD12068806800F0070673
:10564000062E0CD02068006840F001002168086038
:1056500005E02068006840F0010021680860002033
:105660009EE70000000001400004014000040040EB
:1056700000080040000C00400040014000180040BD
:1056800070477047704770472DE9F84F044620680F
:1056900005682068C668206847694FF00009CA4657
:1056A00005F00F09B9F1000F0AD105F0200038B15B
:1056B00006F0200020B1204608F050FABDE8F88F2F
:1056C000B9F1000F7CD007F0010018B906F4907012
:1056D000002875D005F0010030B106F4807018B1D3
:1056E000606C40F00100606405F0040030B107F028
:1056F000010018B1606C40F00200606405F0020027
:1057000030B107F0010018B1606C40F00400606433
:1057100005F0080048B106F0200010B907F00100BC
:1057200018B1606C40F008006064606C002846D0DE
:1057300005F0200028B106F0200010B1204608F046
:105740000DFA20684069C0F3801A606C00F0080010
:1057500010B9BAF1000F2DD0204608F0ADFA20683C
:10576000406900F04000402820D100BF00BF216800
:10577000143151E8001F21F040002168143141E844
:105780000002002AF3D100BFE06B50B17748E16B13
:105790000865E06BFCF7C4F988B1E06B016D8847E0
:1057A0000DE02046FFF76FFF09E009E02046FFF714
:1057B0006AFF04E02046FFF766FF002060647DE793
:1057C000206B012878D105F01000002874D006F075
:1057D00010000028FAD000BF002000902068006868
:1057E000009020684068009000BF00BF20684069BA
:1057F00000F04000402860D1E06B006840681FFA6C
:1058000080F8B8F1000F56D0A08D404553DDA4F8C4
:105810002E80E06BC069B0F5807F43D000BF00BF31
:1058200021680C3151E8001F21F4807021680C318F
:1058300041E80002002AF3D100BF00BF00BF216889
:10584000143151E8001F21F001002168143141E8B2
:105850000002002AF3D100BF00BF00BF216814314D
:1058600051E8001F21F040002168143141E8000296
:10587000002AF3D100BF202084F8420000202063DA
:1058800000BF00BF21680C3151E8001F21F010005B
:1058900021680C3141E80002002AF3D100BFE06B1F
:1058A000FCF7E8F802206063A08DE28D801A81B2D7
:1058B0002046FFF7E7FE01E742E0A08DE18D401AA8
:1058C0001FFA80F8E08DD0B3B8F1000F37D000BFD9
:1058D00000BF21680C3151E8001F21F4907021684D
:1058E0000C3141E80002002AF3D100BF00BF00BF25
:1058F0002168143151E8001F21F0010021681431A2
:1059000041E80002002AF3D100BF202084F84200C1
:105910000020206300BF00BF21680C3151E8001F48
:1059200021F0100021680C3141E80002002AF3D177
:1059300000BF0220606341462046FFF7A3FEBDE69C
:1059400005F0800030B106F0800018B1204608F064
:1059500083F9B3E605F0400030B106F0400018B11D
:10596000204608F0DFF9A9E600BFA7E645DD0008FC
:1059700010B504460CB9012010BDA06900B100E0CB
:1059800000BF94F8410028B9002084F84000204668
:1059900000F02AF8242084F841002068C06820F430
:1059A00000502168C860204607F0C2FF20680069E7
:1059B00020F49040216808612068406920F02A00A6
:1059C000216848612068C06840F400502168C860C0
:1059D00000206064202084F8410084F84200002008
:1059E000606300BFC8E7000010B586B0044614210C
:1059F00001A8FAF7DEFD2F492068884258D100BF80
:105A0000002000902C48006840F480202A4908605B
:105A10000846006800F48020009000BF00BF00BF6F
:105A20000020009024481038006840F0040022490B
:105A3000103908600846006800F00400009000BFBC
:105A400000BF4FF4406001900220029000200390BC
:105A5000032004900720059001A91848FCF768FA74
:105A60001748184908604FF0006048600021154849
:105A70008160C1604FF480610161002141618161F9
:105A80004FF48071C161002101624162FCF77CF931
:105A900008B1FBF754FA00BF0A48E063846300BF13
:105AA000002211462720FCF753FF2720FCF73CFF7C
:105AB00006B010BD004800404038024000080240D7
:105AC000286002404C0600207047704700BFFEE788
:105AD00010B500220F49104800F037FA08B1FBF763
