:020000040800F2
:1000000020B60020A502000831770008215B000817
:100010002D77000849090008C1AA00080000000067
:1000200000000000000000000000000075810008D2
:10003000D10B0008000000008578000879810008D5
:10004000BF020008BF020008BF020008BF0200088C
:10005000BF020008BF020008BF020008BF0200087C
:10006000BF020008BF020008BF020008BF0200086C
:10007000350A0008BF020008BF020008BF020008DE
:10008000BF020008BF020008BF02000859090008AB
:100090004D090008BF020008BF020008BF020008A7
:1000A000BF020008BF020008BF020008BF0200082C
:1000B00075820008BF020008BF020008BF020008E6
:1000C000BF020008BF020008BF020008BF0200080C
:1000D000BF020008BF020008BF020008C585000873
:1000E000BF020008BF020008BF020008BF020008EC
:1000F000BF020008BF020008BF020008BF020008DC
:10010000BF020008BF020008BF020008BF020008CB
:10011000BF020008BF020008BF020008BF020008BB
:10012000410A0008BF020008BF0200084D0A00088B
:10013000BF020008BF020008BF02000871090008E2
:1001400065090008BF020008BF02000841780008E6
:10015000BF020008BF020008BF020008BF0200087B
:10016000BF020008BF020008BF020008BF0200086B
:10017000BF020008BF020008BF0200080000000024
:10018000BF020008BF02000800F002F800F07BF890
:1001900014A696E8000CB244B344DA4501D100F04D
:1001A00072F8BAE80F000FA696E83000A5EB040538
:1001B00004EB0607AAEB0704A7F101074FEA1515A0
:1001C0004FEA3414A4F10104AC4201D300F05BF80F
:1001D00013F0010F18BFFB1A43F0010300F001F800
:1001E000DBE7184730520100505201000A444FF03B
:1001F000000C10F8013B13F0070408BF10F8014B86
:100200001D1108BF10F8015B641E05D010F8016BCA
:10021000641E01F8016BF9D113F0080F1EBF10F82E
:10022000014BAD1C0C1B09D16D1E58BF01F801CB51
:10023000FAD505E014F8016B01F8016B6D1EF9D5D4
:100240009142D6D37047000070470000002300247D
:1002500000250026103A28BF78C1FBD8520728BFD6
:1002600030C148BF0B6070471FB514F0A4FA9DE879
:10027000030000F013FA00F0DFF91FBD10B50020F5
:1002800000F095FA10BD00F0C2FA1146FFF7ECFF3E
:1002900012F064FC00F0E0FA03B4FFF7EFFF03BCD8
:1002A00000F0AEFA0948804709480047FEE7FEE73C
:1002B000FEE7FEE7FEE7FEE7FEE7FEE7FEE7FEE716
:1002C00004480549054A064B704700006182000852
:1002D000890100082036002020B60020207600206A
:1002E0002076002070B5A0FB0140B4F1805170F180
:1002F000000024BF002070BD204600F007F8050074
:100300001CBF214600F04CF9284670BD70B506466A
:1003100000F0A8F9056806F10B0020F00704B442CC
:100320009CBF002070BD2B466A68BAB11068A0421D
:1003300010D304F1080188423CBF5068586007D3CD
:100340005168101941601168091B01605860146000
:10035000101D70BD13465268002AE7D12146284679
:1003600000F088F90028DED170BD70B50446051F85
:1003700000F078F90068002C14BF446870BD002CB0
:1003800018BFAC423CBF20466468F8D301680A1825
:10039000AA4218BF456003D12A680546114401608E
:1003A00028684119A1421CBF6C6070BD616869601A
:1003B00021680844286070BD53EA020C00F069808F
:1003C0002DE9F04B4FF00006002B1FBFB3FA83F569
:1003D00003FA05F424FA05F65E4012BF1643B2FA9A
:1003E00082F502FA05F4C5F120051EBF22FA05FCCC
:1003F00044EA0C04203556EA044C4FEA144418BF72
:10040000641C4FF000084FF00009904271EB030CA0
:1004100039D3002919BFB1FA81F701FA07F6B0FA0A
:1004200080F700FA07F6C7F120071EBF20FA07FC85
:1004300046EA0C062037B6FBF4FCA7EB0507103F95
:1004400007F01F0BCBF120062CFA06F60CFA0BFB7B
:1004500044BFB3460026202FA4BF5E464FF0000BDA
:100460005BEA060C08BF4FF0010B19EB0B0948EBD8
:100470000608ABFB027C06FB02CC0BFB03CCC01BCB
:1004800071EB0C01C1E70B46024641464846BDE808
:10049000F08B13B5084318BF4FF0FF300146AFF3A0
:1004A0000080BDE81C4070470B460146184600F02E
:1004B00035B9032A40F2308010F0030C00F01580AB
:1004C00011F8013BBCF1020F624498BF11F801CB57
:1004D00000F8013B38BF11F8013BA2F1040298BFBC
:1004E00000F801CB38BF00F8013B11F0030300F026
:1004F0002580083AC0F0088051F8043B083A51F8CA
:1005000004CBA0E80810F5E7121D5CBF51F8043BCE
:1005100040F8043BAFF30080D20724BF11F8013B41
:1005200011F801CB48BF11F8012B24BF00F8013BA3
:1005300000F801CB48BF00F8012B704710B5203AF6
:10054000C0F00B80B1E81850A0E81850B1E818507E
:10055000A0E81850203ABFF4F5AF5FEA027C24BF50
:10056000B1E81850A0E8185044BF18C918C0BDE839
:1005700010405FEA827C24BF51F8043B40F8043B02
:1005800008BF7047D20728BF31F8023B48BF11F8B7
:10059000012B28BF20F8023B48BF00F8012B704711
:1005A0004FF000020429C0F0128010F0030C00F09C
:1005B0001B80CCF1040CBCF1020F18BF00F8012B1A
:1005C000A8BF20F8022BA1EB0C0100F00DB85FEAE8
:1005D000C17C24BF00F8012B00F8012B48BF00F8B4
:1005E000012B70474FF0000200B513469446964623
:1005F000203922BFA0E80C50A0E80C50B1F1200136
:10060000BFF4F7AF090728BFA0E80C5048BF0CC0E3
:100610005DF804EB890028BF40F8042B08BF704741
:1006200048BF20F8022B11F0804F18BF00F8012BB3
:10063000704770477047704708487CB57844009011
:1006400007487844009C0546019004E02046016874
:1006500008448047241DAC42F8D17CBDF44D010014
:10066000F64D010000487047900100207047704728
:100670007047704738B504460A4600206946AFF314
:100680000080002808BF38BD02460099204600F0CF
:1006900069F8012038BD012000F0AAB8F8B5AFF321
:1006A0000080054600200C460C2000BF0646A81915
:1006B000A0420DD9324669460020AFF30080070002
:1006C00008BF00F095F80098A04218BF0546C4196D
:1006D000FFF7C8FF05600746F01D20F00700461928
:1006E000284600F00AF8B44208BFF8BDA21B314604
:1006F0003868BDE8F84000F035B80021016041607D
:1007000070470C20704710B500F028F8006810BD45
:1007100010B5044600F022F8046010BD2DE9F04148
:10072000074615460E461020FFF7F0FD04000AD0DC
:100730006760C4E9026500F00DF80168216004609B
:100740000020BDE8F0810120FBE700000048704771
:100750008801002000487047C00100200048704711
:1007600088010020034640688C46002818BF884254
:100770003CBF03464068F8D318681844884207D045
:100780000CF1030020F00700001D411A521A014627
:10079000081D0A60FFF7E9BD10B5002000F06AF8F7
:1007A000FFF76CFDBDE81040012000F029B82DE9ED
:1007B000F0410646FFF7CEFF8046454613E016B1EE
:1007C000E068B0420ED120682860D4E90101D8F871
:1007D000007088472046FFF7C8FDD8F80000B842EF
:1007E000EBD100E025462C68002CE8D1BDE8F08173
:1007F00010B500F047F8BDE8104000F036B8000032
:1008000001491820ABBEFEE726000200704775467E
:10081000FFF79CFFAE4605006946534620F00700EF
:10082000854618B020B5FFF74BFDBDE820404FF0DE
:1008300000064FF000074FF000084FF0000BAC46E9
:10084000ACE8C009ACE8C009ACE8C009ACE8C00934
:1008500021F007018D46704710B50446AFF30080C4
:100860002046BDE81040FFF717BD002801D0FFF774
:10087000C7BF704710B500F047F8BDE81040FFF75C
:10088000F4BF000010B5012805D0002103A000F03E
:1008900021F8012010BD09A1F8E700005349475293
:1008A000544D454D3A204F7574206F662068656140
:1008B00070206D656D6F7279000000003A20486508
:1008C0006170206D656D6F727920636F72727570E3
:1008D0007465640070B505460C460A2000E06D1C86
:1008E00000F02AF835B128780028F8D102E0641C1D
:1008F00000F022F814B120780028F8D1BDE870404B
:100900000A2000F019B8000010B5002102A0FFF77E
:10091000E1FF012010BD0000534947414252543AC3
:100920002041626E6F726D616C207465726D696ECC
:100930006174696F6E00000008B569468DF80000AB
:100940000320ABBE08BD0000FEE7000040F2F0103F
:10095000C2F2000000F0E2BA40F2F010C2F2000071
:1009600000F0DCBA40F21820C2F2000000F0D6BA63
:1009700040F21820C2F2000000F0D0BA0020704708
:100980000020704710B542F68024C2F2000441F204
:10099000C411C2F200012046002207F0E3FF40F636
:1009A000C411C2F20001204607F0CEFF002010BDA6
:1009B00010B542F68024C2F200040146204607F03A
:1009C000C3FF204607F09AFF002010BD00207047AB
:1009D00091ED010A91ED021A90ED012A90ED023A93
:1009E00021EE021A20EE030A31EE400A82ED000ADF
:1009F00090ED000A90ED021A91ED002A91ED023A75
:100A000022EE011A23EE000A31EE400A82ED010ABD
:100A100091ED000A91ED011A90ED002A90ED013A56
:100A200021EE021A20EE030A31EE400A82ED020A9C
:100A30007047000042F61C60C2F2000000F08EBD5C
:100A400042F65C50C2F2000000F088BD42F6BC5095
:100A5000C2F2000000F082BD41F2040040F2A42284
:100A6000CEF20000C2F20002016892ED011AB8EE67
:100A7000411A21EE000A16E00268521A01EE102A0D
:100A8000B8EE411AB4EE410AF1EE10FAD8BF704741
:100A90000268521A01EE102AB8EE411AB4EE410A69
:100AA000F1EE10FA15DD0268521A01EE102AB8EEC6
:100AB000411AB4EE410AF1EE10FA0ADD0268521A48
:100AC00001EE102AB8EE411AB4EE410AF1EE10FA26
:100AD000D2DC704710B582B041F2040CCEF2000CAB
:100AE000DCF80010009140F2A421C2F20001DDF810
:100AF00000E003684A68009C0460087880B901201F
:100B00000870DCF80000019001984C69A04202D204
:100B1000086901300861DCF80000486100200870B5
:100B2000AEEB030000EE100A01EE102AB8EE400A08
:100B3000B8EE411A80EE010A02B010BD10B581B0C6
:100B400044F24021C0F20F0100FB01F244F6D35001
:100B5000C1F262004EF6FC51A2FB0003CEF200018E
:100B6000086841F2040CCEF2000C40F080704FF0A7
:100B7000000E0860CCF800E04DF683605CF8041CC1
:100B8000C4F21B30A2FB000441F0010040F2A4219A
:100B90004CF8040CC2F200019809A30CC1E9012031
:100BA000C1E9033E087808B101B010BD01220A7006
:100BB000DCF80000009000984B69984238BF0A6149
:100BC000DCF8000048610020087001B010BD000092
:100BD0007047000090ED000A90ED011A91ED003A87
:100BE00091ED014A90ED022A91ED025A23EE000A9E
:100BF00024EE011A31EE000A25EE021A30EE010A47
:100C00007047000072B600BFFEE7000090F8202099
:100C1000013A012A08D8006800F114020020136884
:100C200019431160704700BF00F1240201204FF406
:100C300080211368194311607047000010B590F8C7
:100C400020E0D0F800C0AEF1010EBEF1010FDCF8DB
:100C500008E011D81EF0E05F18D0CEF30164012047
:100C6000A04018608B68DBB1D1F804E0C86840EAA6
:100C7000CE0040EA030E17E000F1240301204FF4F8
:100C800080211A681143196010BD00BF00F12403D0
:100C900001204FF400111A681143196010BD00BF04
:100CA0000868CB6843EA405E0CF5C07000EB0413A3
:100CB000240140F804E00C69184640F8044F097D0F
:100CC000012903D1016841F480710160506801215C
:100CD000D8601068986000201A681143196010BD30
:100CE00090F82020013A012A30D8B0B546F20060D1
:100CF000C4F20000026842F001020260026822F4BD
:100D00007C520260D1F814E0CC694A6A0368012C75
:100D100043EA022202600EF01F024FF0010303FAC1
:100D200002F2C3696FEA020C23EA0203C36113D023
:100D30002CBBC36803EA0C03C360CB688C8844EA0D
:100D4000034300EBCE0423640B4611E0416A41F4F7
:100D50008021416201207047C3681343C3600B6860
:100D60008C8844EA034300EBCE04236401F10C03B6
:100D70008C681B8843EA044300EBCE046364436839
:100D80008D6943EA0204D1F810E0096A002D08BF1A
:100D900003EA0C0444604369BEF1000F43EA020415
:100DA00008BF03EA0C040129446102D1C16911435F
:100DB000C161016821F0010101600020B0BD0000A7
:100DC00070470000B0B590F82040013C012C7DD860
:100DD000D0F800C000290CBFDCF80C40DCF8104053
:100DE000A4077DD00CF5D8754FEA011C55F80C40CE
:100DF00014F00404946055F80CE005EB011C19BFD5
:100E00004FEADE0555604FEA5E551560DCF800508C
:100E1000E64605F00205D5605EF8044F24075ABF88
:100E2000DEF8004004F00F0408241461DEF80040EE
:100E30000029C4F307249461DEF800504FEA1545F9
:100E40005561DCF808201A70026802EB0112D2F832
:100E5000B8214FEA12225A70026802EB0112D2F84E
:100E6000B8214FEA12429A70026802EB0112D2F8DE
:100E7000B8214FEA1262DA70026802EB0112D2F86E
:100E8000BC211A71026802EB0112D2F8BC214FEAB0
:100E900012225A71026802EB0112D2F8BC214FEA09
:100EA00012429A71026802EB0112D2F8BC214FEA99
:100EB0001262DA7100680CBF00F10C0100F1100140
:100EC000002020220B681A430A60B0BD00F1240103
:100ED00001204FF480220B681A430A60B0BD00BFA6
:100EE00000F1240101204FF400120B681A430A603C
:100EF000B0BD000090F820100139012984BF002006
:100F000070470068816882688068C1F38061C2F3BD
:100F1000C0621144C0F30070084470472DE9F04FDF
:100F200081B0044600684669D0F804908768D0F81C
:100F30000CB0D0F810A0D0F81880F10704D100252B
:100F400030071DD424E000BFF90710D00121BA07F3
:100F5000816009D4780700F1AF80380700F1B680CE
:100F6000204600F063FA02E0204600F061FA002516
:100F7000F80500F18780F80300F1B180300707D54C
:100F80001BF0100004D0206845F400751021C160EA
:100F9000700708D51BF0080005D020680821C16043
:100FA000204600F0FFF9B00706D52068C06880072A
:100FB00002D0204600F0F8F9700607D51AF01000AC
:100FC00004D0206845F4806510210161B00608D581
:100FD0001AF0080005D0206808210161204600F0C1
:100FE000F1F9F00606D520680069800702D0204696
:100FF00000F0EAF9B00308D519F0100005D0206818
:1010000010214160204600F0E1F9F00308D519F005
:10101000080005D0206808214160204600F012FA3F
:10102000300440F19B805FEA497040F1948006F4FF
:10103000807008EA102028435FEA8871014648BFA3
:1010400041F00201B20558BF01465FEA48700D4603
:1010500048BF45F00405700558BF0D46300540F106
:101060007A8018F0700000F07680103800090528AA
:101070006CD8DFE800F003655D61596945F008054B
:1010800064E000BF20684FF48071BA0581600BD422
:10109000780515D438051DD4204600F0CBF9F803A7
:1010A0007FF56CAF1BE000BF204600F0C5F9F803E8
:1010B0007FF564AF13E000BF4FF4006558E700BF51
:1010C00005F50055F8037FF559AF08E04FF480555A
:1010D0004EE700BF05F58045F8037FF54FAF206868
:1010E0004FF48031BA0381600AD4780310D43803F6
:1010F00014D4204600F0A2F930073FF541AF47E78E
:10110000204600F09DF930073FF53AAF40E700BFB9
:1011100005F5004530073FF533AF39E705F5803574
:1011200030073FF52DAF33E745F080050EE000BFF7
:1011300045F020050AE000BF45F0400506E000BF8D
:1011400045F0100502E000BF45F480752068816914
:1011500021F07001816120680421416055B1606A0D
:1011600040EA05012046616201B0BDE8F04FFFF79B
:1011700027BE00BF01B0BDE8F08F0000002804BF0B
:1011800001207047B0B5044690F8200010B9204601
:1011900000F06EF82068016841F00101016000F084
:1011A000ADFC054620684168C90705D100F0A6FCE2
:1011B000401B0B28F6D310E0016821F0020101600A
:1011C00000F09CFC054600BF2068416889070DD5EA
:1011D00000F094FC401B0B28F6D3606A052140F414
:1011E00000306062012084F82010B0BD217E0268CA
:1011F000012922F0800208BF80320260617E02680D
:10120000012922F0400208BF40320260A17E02683C
:10121000012922F0200208BF20320260E17E02682C
:10122000012922F0100218BF10320260217F0268EB
:10123000012922F0080208BF08320260617F0268BB
:10124000012922F0040208BF04320260D4E901C27D
:10125000D4E9033561691A432A431143ACF1010211
:101260001143C16100200121606284F82010B0BDEB
:10127000B0B586B0006846F60002C4F20002002154
:101280009042CDE90411CDE90211019136D046F228
:101290000041C4F20001884240F0828040F20C31EB
:1012A000C2F200010A6843F64000C4F20200531C77
:1012B0000B6052B900210091016841F0007101609A
:1012C000016801F00071009100990021009150F82F
:1012D000101C142441F0080140F8101C50F8100CA8
:1012E000132500F008000090009840F20040C4F27E
:1012F000020000F50060032136E000BF43F6400025
:10130000C4F202000091016841F08061016001684F
:1013100001F080610091009940F20C31C2F20001AD
:101320000A68531C0B6052B900210091016841F01A
:1013300000710160016801F00071009100990021C5
:10134000009150F8101C402441F0020140F8101C9C
:1013500050F8100C3F2500F002000090009840F279
:1013600000406021C4F2020001910221029100219B
:101370000391032104910921059101A900F0E8FAE4
:1013800028460021002200F021FF284600F00CFF33
:1013900020460021002200F019FF204600F004FF43
:1013A00006B0B0BD7047000010B58AB003AA01AB0B
:1013B00000210446FFF706FD204611F0A7FA0AB007
:1013C00010BD00007047000070470000704700002B
:1013D000B0B5044690F8200001281DD1022084F801
:1013E00020002068016821F00101016000F086FB07
:1013F000054600BF20684068C00713D000F07EFBA0
:10140000401B0B28F6D3606A40F400306062052070
:1014100084F820000120B0BD606A40F400206062C2
:101420000120B0BD00206062B0BD00007047000028
:1014300070470000704700007047000070470000D0
:101440007047000070470000002804BF012070476B
:10145000417919B1012141710020704710B5002177
:101460000171044600F008F82046BDE81040012153
:10147000417100207047000043F63001C4F20201C0
:101480000068A1F50362904218BF704781B0002048
:101490000090086840F480500860086800F48050AC
:1014A0000090009801B0704770B5866D044600F05A
:1014B00025FB94F83510022928D105462068216CB7
:1014C000026822F016020260426922F08002426144
:1014D00009B9A16C19B1016821F008010160016826
:1014E00021F00101016000BF20680068C00715D02D
:1014F00000F004FB401B0628F6D320206065032083
:1015000084F83500002184F8341070BD80206065B7
:101510000120002184F8341070BD00BFE06D3F2130
:1015200001FA00F0B060012084F8350000200021AD
:1015300084F8341070BD000090F83510022909D1EC
:10154000052180F835100068016821F00101016073
:10155000002070478021416501207047F0B581B0BF
:101560000021009140F2B401C2F200010B68D0E901
:10157000166148F2B51537680822C1F64E358A4023
:101580003A42A3FB05350CD003681C68640708D5F4
:101590001C6824F004041C60B260426D42F0010239
:1015A000426501228A403A4208D003685B691B0603
:1015B00004D5B260426D42F00202426504228A40C4
:1015C0003A4208D003681B689B0704D5B260426D9D
:1015D00042F00402426510228A403A4219D0016862
:1015E0000B681B0715D5B2600B680A685B0309D44A
:1015F000D20509D40A6822F008020A60016C29B9F0
:1016000007E000BF110341D4016C11B104468847C3
:101610002046C26D202101FA02F33B4243D001680B
:101620000F68FF063FD5B36090F835700B68052F43
:101630001CD123F016030B604B6923F080034B6130
:10164000036C0BB9836C1BB10B6823F008030B60B0
:101650003F219140B160012180F83510016D0022D9
:10166000002980F8342054D158E000BF0A685B0399
:1016700010D4D20512D40A6822F010020A600121A7
:1016800080F83510002180F8341007E0816C0029C3
:10169000BCD1BEE7110301D4416C00E0C16B11B1B4
:1016A000044688472046416DC1B3416DC9072ED01D
:1016B000052180F835100168AA0A0B6823F00103A0
:1016C0000B60009B0133934200931AD80B68DB0731
:1016D00017D0009B01339342009312D80B68DB07AD
:1016E0000FD0009B0133934200930AD80B68DB07AD
:1016F00007D0009B01339342009302D80B68DB07AD
:10170000DFD1012180F83510002180F83410C16C40
:1017100021B101B0BDE8F040084700BF01B0F0BD05
:101720002DE9F041044600F0E9F9ECB1054602204C
:1017300084F835000020216884F83400086820F01F
:101740000100086021680868C00711D000F0D6F9D0
:10175000401B0528F6D9032520230320636584F860
:101760003550BDE8F08100BF0120BDE8F08100BF29
:10177000086848F23F02CFF21002D4E9013500EACE
:10178000020C04F10C0898E8C10143EA0C032B4356
:101790001843D4E9072E304338431043626A40EAC5
:1017A0000E00042A40EA08031CD1206BD4E90A2E5B
:1017B00040EA0E00184308604869BEF1000F20F0AF
:1017C000030040EA020040F0040C11D0B8F5005FBD
:1017D00036D0B8F1000F45D1022A46D0012A3BD0BD
:1017E00032B942E00B60486920F0070040EA020C81
:1017F00001F0F8004AF6AB221038CAF6AA22A0FB84
:1018000002231A0944F67433C1F814C0C0F6010368
:101810009A5C40F2FF335F284FF03F0021EA03015A
:1018200000FA02F088BF0431C4E916128860002370
:1018300001250020636584F83550BDE8F08100BFC4
:10184000032AD5D8012540230120DFE802F0030E4A
:10185000030500BF82E700BFAEF1C070B0FA80F0B0
:10186000400904E0032A04D3C2D1CEF3006000286B
:10187000BED0012540230120636584F83550BDE8C2
:10188000F081000090F834C0BCF1010F04BF0220C9
:10189000704770B54FF0010C80F834C0D0F858E0B4
:1018A00090F835C0BCF1010F38D14FF0020C80F830
:1018B00035C04FF0000CC0F854C0D0F800C08468A8
:1018C000056CC06DDCF80060402C26F48026CCF856
:1018D0000060CCF804300B4604BF13460A463F2193
:1018E00001FA00F0CCF80830CCF80C20CEF8080053
:1018F000DCF8000040F01600CCF800002DB1DCF858
:10190000000040F00800CCF80000DCF8000040F0D7
:101910000100CCF80000002070BD00BF002180F85D
:101920003410022070BD0000B0B5044600F0E6F8A7
:10193000054640F20000C2F200000078611C18BFAA
:10194000044400BF00F0DAF8401BA042FAD3B0BD57
:101950002DE9F04F83B000F1200200F13E4741F63F
:101960000045009207F1FF77C4F2020508224FEA12
:10197000B726A84208BF072200254FF000084FF005
:101980000009072E38BF4FEAB72201920AE000BFD4
:1019900009F1010908F10208B9F1100F05F1040578
:1019A00000F0A2800F68012202FA09FE17EA0E0A6F
:1019B000EED0D1F804C003220CF003077E1E02FA19
:1019C00008F4012E6FEA040B12D88468CE6804EA8A
:1019D0000B0406FA08F634438460446824EA0E06D1
:1019E000CCF3001404FA09F42643466004E000BF77
:1019F000032F01D103271EE0C6688C6806EA0B0698
:101A000004FA08F42643022FC66014D16FF00302D3
:101A1000009E02EA590756F807C005F01C040F2281
:101A20000B69A2402CEA0202A3401A43F251D1F8FA
:101A300004C00CF00307026807FA08F302EA0B027D
:101A40001A431CF4403F0260A2D0002243F6440334
:101A50000292C4F202031A6843F6004442F4804240
:101A60001A601A68C4F2010402F480420292029AD7
:101A700029F003024FF6084C2244CFF6FF7C52F8BF
:101A80000C3005F00C070F26BE40B343019E06FA4A
:101A900007F73B4342F80C30A2684B6842EA0A075A
:101AA00043F60C4CDE0258BF22EA0A07A760C4F2D4
:101AB000010CDCF800209E0242EA0A0758BF22EA25
:101AC0000A07CCF8007062689E0342EA0A0758BF12
:101AD00022EA0A0767602268DB0342EA0A0758BF66
:101AE00022EA0A07276053E703B0BDE8F08F000041
:101AF000002A08BF090481617047000043F21860A2
:101B0000C2F2000000687047002804BF012070473F
:101B1000F0B581B0044690F83D0028B9002084F863
:101B20003C00204600F07CFA242084F83D00206828
:101B3000016821F001010160016841F40041016088
:101B4000016821F40041016001F04CFC636848F237
:101B5000A16CC0F2010C40F60011C0F23D016345DA
:101B60003CBF48F28041C0F21E01884202D20120EF
:101B700001B0F0BD4DF68361C4F21B31A0FB011230
:101B80002168970CD1F804E04FF496762EF03F05CB
:101B900045EA92454D60774348F638160D6AC0F223
:101BA0004106A7FB067625F03F07634538BF960C34
:101BB000721C3A430A62CA6948F2A0664CF6FF7783
:101BC000C0F20106B34222EA07020BD801385B00DB
:101BD000B0FBF3F001306FF31F30042898BF0420EE
:101BE0001BE000BFA768013857B119277B43B0FB42
:101BF000F3F001306FF31F3070B100F5804007E063
:101C000003EB4303B0FBF3F001306FF31F3018B167
:101C100000F5004001E000BF01201043C8610868E2
:101C2000D4E9072320F0C0001043184308608868F7
:101C300048F2FF3204F10C0790438CCF1843104355
:101C4000A6698860C86820F0FF0038433043C86048
:101C5000086840F00100086000202021206484F81A
:101C60003D10206384F83E0001B0F0BD2DE9F0473F
:101C700084B0994616460F460446FFF73FFF94F896
:101C80003D10202927D10546206800BF81698907BA
:101C90001CD5FFF733FF411B20681A29F6D3816951
:101CA0008907F3D500202021206384F83D1084F8B3
:101CB0003E00206C04F13C0A40F020002064022029
:101CC00000218AF8001004B0BDE8F087A2461AF897
:101CD0003C1F012904D1022004B0BDE8F08700BFF9
:101CE00001228AF800200368DDE90D180C9ADB0751
:101CF00003D1036843F001030360036823F4006326
:101D00000360222084F83D00402084F83E0000203B
:101D1000206462626185608D394620850020CFF69F
:101D2000FF70E062204632464B46CDE9008503F065
:101D3000F9FE18B1012004B0BDE8F087208D08B38A
:101D4000022813D0012835D121680A6822F4806264
:101D50000A60002203924A6903928A690392039AF5
:101D60000A6842F400720A602CE000BF21680A6829
:101D700022F480620A600A6842F400620A6000226B
:101D800003921AE000200390206841690391816961
:101D900003910399016841F400710160202084F8E7
:101DA0003D00002084F83E0000218AF8001004B0B5
:101DB000BDE8F0870021039121684A69039289698F
:101DC000039103990427C0F201070CE01069087021
:101DD000606A218D01306062481E2085618D013965
:101DE00061850104DAD080B203280FD802284AD0D6
:101DF00001282DD1204641462A4604F031F9002819
:101E000098D12068616A0069E1E700BF2046414639
:101E10002A4604F025F900287FF48CAF2068616A17
:101E200000690870606A2268411C208D6162013877
:101E30002085638D013B638553695B07D1D580B2F3
:101E40000328C3D1106820F480601060BEE700BF93
:101E50002046394600224346009503F0AFFF002894
:101E60007FF468AF2068616A026822F480620260D1
:101E700000690870606A218D01306062481E20850B
:101E8000608D013860852046394600224346009522
:101E900003F094FF00287FF44DAF2068616A026868
:101EA00042F40072026000690870606A2268411C96
:101EB0006162218D01392185618D01396185116949
:101EC000417085E72DE9F04383B0994616460F46E9
:101ED0000446FFF713FE94F83D10202924D105464F
:101EE000206800BF816989071AD5FFF707FE411BEB
:101EF00020681A29F6D381698907F3D500202021AB
:101F0000206384F83D1084F83E00216C41F02001EC
:101F1000216484F83C00022003B0BDE8F08300BFD8
:101F200094F83C10012903D1022003B0BDE8F083EE
:101F3000012284F83C200368DDE90B180A9ADB07CC
:101F400003D1036843F001030360036823F40063D3
:101F50000360212084F83D00402084F83E000020EA
:101F6000206462626185608D394620850020CFF64D
:101F7000FF70E062204632464B46CDE9008503F013
:101F80005BFE18B1012003B0BDE8F083208D98B945
:101F9000204641462A4603F0B3FE88B3206C04284D
:101FA000F0D12068016841F400710160012003B0A4
:101FB000BDE8F0830004EBD0204641462A4604F0F9
:101FC00097F80028EAD1616A2268084610F8013BB8
:101FD0001361238D6062581E2085678D013F6785E0
:101FE00057697F07E6D50704E4D048781061881C5C
:101FF0006062981E2085618D01396185DAE700BF36
:102000002068016841F400710160202084F83D00DF
:10201000002084F83E0084F83C0003B0BDE8F08363
:102020002DE9F04786B045F600460068C4F2000688
:102030000025B0420595CDE903550295019503D0E1
:1020400006B0BDE8F08700BF43F630070095C4F244
:102050000207386801AC40F00400386038684FF07F
:10206000120800F0040000900098009538684FF0C6
:10207000030940F00100386038684FF0040A00F0AE
:102080000100009000984FF40070019006F5D630E2
:102090002146CDE90285CDF81090CDF814A0FFF7C8
:1020A00057FC4FF48070CDE9010803A880E82006B2
:1020B00006F5D2302146FFF74BFC0095386940F415
:1020C00000003861386900F400000090009806B004
:1020D000BDE8F08740F2000043F21861C2F2000050
:1020E000C2F2000100780A681044086070470000DE
:1020F00080B543F60040C4F20200016841F400716B
:102100000160016841F480610160016841F48071FF
:102110000160032000F086F80F2000F005F800F0C1
:1021200027F8002080BD000070B540F20006C2F222
:10213000000640F2B4013278C2F200014FF47A7323
:102140000968B3FBF2F20446B1FBF2F1084602F073
:10215000EFFA0F2C4FF0010508D838B94FF0FF30D7
:1021600021460022002500F031F87460284670BD39
:1021700082B0002043F640010190C4F202014A6897
:1021800042F480424A604A6802F480420192019A15
:102190000090086840F080500860086800F08050A7
:1021A0000090009802B07047002848BF704700F0C8
:1021B0001F01012202FA01F11C2202EAD0004EF2B4
:1021C0000012CEF2000281507047000010B54EF6AA
:1021D0000C5CCEF2000CDCF80030C3F3022E8EF063
:1021E0000704042C28BF0424BEF103034FF0FF3E74
:1021F0000EFA04F438BF0023A14399400EFA03F30A
:102200009A43114300F00F0200F160430901043AC0
:1022100003F564436244002848BF02F10C031970BF
:1022200010BD00004EF60C51CEF200010A684FF6C8
:10223000FF031A4060F30A2242F0806040F0FD7014
:1022400008607047704700000268002051627047C4
:102250002DE9F041D0F80080D8F8243091B1D8F8B9
:102260002870B1F1010C03EB17414FD05FFA8CF7E6
:1022700008F58273042F0CF0030E0BD20027002404
:102280002BE000BF43EA02410020C8F82810BDE857
:10229000F08100BF0CF0FC0508F1F406002400BF3B
:1022A00056F8107F44F0020001EB174144F001079B
:1022B000FFB253F82770C0B253F8200001EB17416A
:1022C00001EB104044F00301C9B253F8211004346B
:1022D000E7B2AF4200EB1141E2D1BEF1000F15D0E1
:1022E00053F82700BEF1010F01EB10410ED0601C26
:1022F000C0B253F82000BEF1020F01EB104105D02F
:10230000A01CC0B253F8200001EB104141EA02408A
:1023100008EB8C01C1F804010020BDE8F081000049
:10232000D0F8E00406F0BEBD01EBC102D0F8E03405
:1023300000EB8200026A184606F020BD01EBC102E4
:10234000D0F8E03400EB8200D0F86022184606F0A6
:102350006FBD0000D0F8E00406F0A6BD10B501F096
:102360000F0E0A464FFA81FC0EEBCE0100EB810303
:1023700003F51571BCF1000F48BF03F1140190F88B
:102380009434D209012B4A7081F800E004BF022086
:1023900010BD0268012380F894340446104607F00B
:1023A00039FB002084F8940410BD0000037901F08B
:1023B0000F029A4284BF0120704710B502EBC2039E
:1023C00000EB83034FFA81FC8E4603F51571BCF1D7
:1023D000000F48BF03F114014FEADE134B7090F871
:1023E00094344FF0000C012B81F802C00A7004BF36
:1023F000022010BD0268012380F894340446104680
:1024000007F0FCFD002084F8940410BD01F00F01DA
:1024100001EBC10100EB8100D0F8680270470000B9
:1024200010B54FFA81FCBCF1000F01F00F0C0CEB62
:10243000CC010DD400EB810E00240EF515718EF841
:1024400055428EF854C2CEF85C228EF8583209E01C
:1024500000EB810101F814CF01244C708A600B71EC
:10246000A1F81AC0022B04BF00224A7190F89424EC
:10247000012A04BF022010BD0268012380F89434B1
:102480000446104607F06AF9002084F8940410BD51
:1024900010B501F00F0E0EEBCE0100EB81044FF0F2
:1024A000000CC4F868C284F855C290F806C004F560
:1024B0001571C4F86022C4F86432BCF1010F84F8CD
:1024C00054E208BFCA610068624607F0E1FD0020DF
:1024D00010BD0000B0B5027901F00F0494424FF036
:1024E00001022CD801EBC10300EB83034FFA81FCFE
:1024F00003F5157304EBC405C90900EB8505BCF1B0
:10250000000F48BF05F11403597090F894149A70A5
:1025100001291C7004BF0220B0BD0168054680F887
:1025200094240846194607F093FD2CB92868A97928
:1025300005F29C4207F034FD002285F894241046F1
:10254000B0BD000001F00F0C0CEBCC0100EB8101E1
:1025500001F814CF4FF0000C0B618379C1F814C05F
:102560004FF0010CCA60012B81F801C008BFCA619D
:1025700080B500681A4607F08BFD002080BD000082
:102580002DE9F04F87B005688246284607F088FF9E
:1025900010B107B0BDE8F08FDAF8000007F0AEFF29
:1025A0000028F6D0D5F80808C0F30D21DAF80000AD
:1025B000CAF8D41407F0A2FF0146DAF80000890730
:1025C00003D5416901F00201416105F50061049103
:1025D00007F094FF0146DAF80000C906059535D5E5
:1025E000816921F0100181612C6A04F00F0000EB79
:1025F000C0000AEB8001C4F34340062801F51575BD
:1026000012D002281BD147F6F07014EA000616D04B
:10261000E96834090598224607F074FFE86800EB82
:102620001610E86008E000BF05980AF29C410822F5
:1026300007F068FFC4F30A14686920446861DAF897
:102640000000816941F010018161059D07F056FF8E
:10265000000340F1F180DAF8000007F02DFF0028B8
:1026600000F0EA8006460AF29C404FF430680024ED
:102670004FF0000B069019E005EB08000221816085
:10268000B80642BF05EB080020218160B80442BFB4
:1026900005EB08004FF4005181600BF1010B760847
:1026A00008F1200804F1240400F0C680F007F4D0FB
:1026B000DAF800005FFA8BF9494607F017FF074682
:1026C000C00760D005EB080001218160DAF8000046
:1026D00008EB0001036C8A689AF80650012D25D199
:1026E000150733D4950600F19F8043F20B05C4F61D
:1026F0005475AB42059D02D312F4004230D10AEB6F
:102700000402D2F8743209696FF3DF41A3EB0101CF
:10271000C2F868129CBBD2F86432002B00F08A80A9
:10272000D2F860020844C2F8600228E043F20B05C8
:10273000C4F65475FF35AB4218D1059D10040FD473
:10274000900644BF2020886019E000BF43F20B00D0
:10275000C4F65470059D834215D312F4004012D084
:102760004FF40040886038070FD43DE0059D34B930
:10277000DAF8641219B90021069A07F011FC5046E4
:102780004946FFF7DBFD38072ED505EB0800082189
:102790008160DAF8000043F20B02056C4044816866
:1027A000C4F6547295420BD311F4004108D04FF493
:1027B00000418160504600F01BFD059D0AE000BF0E
:1027C000504600F015FD43F20B00C4F654708542EC
:1027D000059D09D39AF80600012805D1DAF8000012
:1027E000069A012107F0DCFBF80642BF05EB080062
:1027F00010218160B8077FF543AF6869000604D5F2
:102800000499486840F4806048600AEB040090F83E
:10281000571201297FF430AF002180F8571250463B
:10282000494600F035FB27E720208860059D3807E2
:10283000ABD4D9E701219FE7DAF80000CDF818A062
:1028400007F05CFE400340F1D3800698006807F073
:102850002BFE002800F0CC800646069805F510698E
:1028600000F1140100F29C40002703910190CDF883
:10287000089004E0760807F1010700F0B980F0073E
:10288000F8D006985FFA87FA0068514607F01CFEF8
:102890000446C00726D0049A07F00F00516B0123AD
:1028A00003FA00F021EA0000506309EB471083604F
:1028B00006988079012811D1039907EBC70001EB35
:1028C0008000D0E902121144C1603FB9006928B903
:1028D0000698019A0068012107F062FB06985146AC
:1028E000FFF722FD200742BF09EB47100821816056
:1028F000E00642BF09EB471010218160600642BF2D
:1029000009EB471040218160A00716D528463946BB
:1029100007F058FD039907EBC70001EB800010F8A2
:10292000031F012905D1002101700698514600F0CE
:10293000ABFA09EB47100221816020069AD5039972
:1029400007EBC70001EB8008D8E90420824291D34D
:102950000699D8F808300C68111A994238BF0B460E
:1029600004EB4711D1F818C903F1030E1FFA8CF3D9
:10297000B3EB9E0F2DD301F5106900BFD8F81020DE
:10298000824224D9101A069AD8E902B1957958459D
:1029900038BF83461FFA8BF3204652460095059DAB
:1029A00008F058F8D8F80C00D8F814105844C8F8B3
:1029B0000C0001EB0B00C8F81400D9F818100BF14B
:1029C000030289B2B1EB920FD8D2D8F81020DDF80B
:1029D000089082423FF64EAF07F00F00D4F834184B
:1029E000012202FA00F021EA0000C4F8340841E7AD
:1029F000DDF81890D9F8000007F080FD002821D4F8
:102A0000D9F8000007F07AFD00053AD4D9F80000A3
:102A100007F074FDC00445D50499486820F0010012
:102A20004860D9F80000102107F0CCFC99F80400A8
:102A3000010600F0EC80C1B2042900F0030035D299
:102A400000219AE00499486820F00100486099F854
:102A5000CC04012808D1002089F8CC044846002184
:102A6000FFF7F0FB03E000BF484600F0A5FBD9F8F4
:102A70000000416901F00041416107F03FFD0005A0
:102A8000C4D504988068C00702D0484600F0D8FB3F
:102A9000D9F80000416901F40061416107F02EFDA1
:102AA000C004B9D4D9F80000DDE000BF6FF06002C7
:102AB00002EA411200234FF67F370021EE18C6F8D4
:102AC0000879D6F80059803325F40015C6F8005966
:102AD000C6F8087BD6F8005B9A4225F40015C6F8C4
:102AE000005BD6F8005B01F1040145F00065C6F813
:102AF000005BC6F82879D6F8205925F40015C6F8E9
:102B00002059C6F8287BD6F8205B25F40015C6F8B6
:102B1000205BD6F8205B45F00065C6F8205BC6F860
:102B20004879D6F8405925F40015C6F84059C6F83A
:102B3000487BD6F8405B25F40015C6F8405BD6F814
:102B4000405B45F00065C6F8405BC6F86879D6F88A
:102B5000605925F40015C6F86059C6F8687BD6F8A8
:102B6000605B25F40015C6F8605BD6F8605B45F045
:102B70000065C6F8605B059DA0D1002847D005F52B
:102B8000106202EB41134FF67F374E019F6095595B
:102B9000059B25F4001503F53063955103EB4115B2
:102BA000AF609D59012825F400159D519D5945F0B0
:102BB00000659D512BD04E1C02EB46147501A76099
:102BC000545903EB461624F400145451B7605F596E
:102BD000022827F400175F515F5947F000675F51E3
:102BE00015D0881C02EB40174FF67F364101BE60BE
:102BF000575803EB401027F4001757508660585879
:102C000020F400105850585840F000605850049F6D
:102C10008421F869442240F00110F86199F80F000E
:102C200000284FF00B0008BF142108BF42F22B0010
:102C30007B5808BF102218437850B85840F00B005A
:102C4000B850386809F29C4220F4FE603860D9F828
:102C5000000099F8061007F0A3F9D9F800004169BF
:102C600001F48051416107F049FC0146D9F80000A8
:102C700089041AD506F0B4FDD9F8000007F002FC6B
:102C8000D9F8004089F8070000F0A6FB99F8072062
:102C90000146204607F052FE484600F079FAD9F87E
:102CA0000000416901F40051416107F027FC000771
:102CB00006D4D9F8000007F021FC00060DD437E057
:102CC000484600F07DFAD9F80000416901F008019A
:102CD000416107F013FC00062AD50599886920F0A8
:102CE0008000886199F80400022821D309F5157441
:102CF00009F11405012640F27B2704E001368642E3
:102D000007F1240714D219F807100129F6D106F0AB
:102D10000F0000EBC0023006D9F8000005EB82017D
:102D200058BF04EB820107F0BDFA99F80400E5E70B
:102D3000D9F8000007F0E2FBC0024FD4D9F8000038
:102D400007F0DCFB059D800240F1808099F80410BB
:102D5000022929D305F53260013909F51F720123D3
:102D600005E000BF2030013902F124021CD00768C1
:102D70001678012EF6D1B7F1FF3FF3DCD9F8D46411
:102D800007F4803706F00106B742EBD102F8013CA8
:102D9000AF6947F08007AF616F693F06E2D40499DD
:102DA000486840F400704860D9F80000416901F4B7
:102DB0000011416107F0A2FB40004DD54846FFF7E6
:102DC000AFFAD9F80000416901F08041416107F094
:102DD00095FB40077FF5DDAB45E000BF99F80400A7
:102DE000022827D3059909F1140401F5126509F1A8
:102DF0003B064FF00108012706E000BF01372035F0
:102E0000874206F1240615D229687278012AF5D185
:102E1000B1F1FF3FF2DC07F00F0000EBC001D9F881
:102E2000000004EB810186F8008007F03BFA99F876
:102E30000400E3E7D9F80000416901F48011416121
:102E400007F05CFB059D80023FF580AFD9F80000DC
:102E500007F054FB4000B1D4D9F8000007F04EFB56
:102E600040077FF596ABD9F800004468610704D5A8
:102E70004846FFF76FFAD9F80000416821434160E6
:102E800007B0BDE8F08F0000D0F8E00406F070B89D
:102E9000D0F8E00406F082B8002804BF0120704793
:102EA000F0B581B00446056890F8950428B9002073
:102EB00084F89404204600F027F90320B5F1A04FD0
:102EC00084F8950404BF0020A071206807F060F822
:102ED00094E80F00267C009606F092FC002840F053
:102EE00000812068002107F063FB002840F0F98092
:102EF00094F804E0BEF1000F00F0EC800EF0030C3B
:102F0000BEF1040F4FF0000240D30EF0FC03A4F119
:102F100090000321012500BFCE1E80F8A460A0F818
:102F2000BE608E1E80F8C860A0F8E2604E1E80F879
:102F3000EC60A0F8066180F81011A0F82A110E1DAF
:102F4000013180F8A55080F8A820C0E92B22C0F8F4
:102F5000B42080F8C95080F8CC20C0E93422C0F8F1
:102F6000D82080F8ED5080F8F020C0E93D22C0F86C
:102F7000FC2080F8115180F81421C0E94622C0F8E5
:102F80002021903099423146C6D1F21EBCF1000F8B
:102F900031D004F1140002EBC20100EB81050123E2
:102FA00000F821200021BCF1010F6B706A832971A8
:102FB000C5E9021129611ED0551C05EBC50600EBC1
:102FC0008607BCF1020F7B7000F826507D833971B3
:102FD000C7E9021139610ED0911C01EBC10200EB6F
:102FE0008203012500F8221000205D7059831871BA
:102FF000C3E902001861BEF1000F6BD0BEF1040FEF
:103000004FF0000236D30EF0FC000321234600BF30
:10301000CF1E83F854728F1E83F878724F1E83F888
:10302000C0120D1D013183F8552283F85822C3E9DF
:103030009722C3F8642283F8792283F87C22C3E9BB
:10304000A022C3F8882283F89D2283F89C7283F81B
:10305000A022C3E9A922C3F8AC2283F8C12283F8D5
:10306000C422C3E9B222C3F8D02290338142294658
:10307000CED1EA1EBCF1000F2CD004F5157002EB86
:10308000C20300EB83070021BCF1010F797000F847
:1030900023203971C7E9021139611BD0531C03EB9E
:1030A000C30700EB8706BCF1020F717000F82730F0
:1030B0003171C6E9021131610CD0911C01EBC102E2
:1030C00000EB820300275F7000F822101F71C3E934
:1030D00002771F6194E80F00277C009706F0FCFC44
:1030E00030B1022084F89504012001B0F0BD00BF8A
:1030F00000206074012084F89504206806F0DCFC50
:10310000002001B0F0BD0000B0B586B0006800241A
:10311000B0F1A04F0594CDE903440294019401D08D
:1031200006B0B0BD43F630050094C4F2020528682D
:1031300001A940F001002860286800F0010000901B
:1031400000984FF4C05001900220CDE90204032002
:1031500004900A2005900020C4F20200FEF7F8FB5C
:103160006868002140F0800068600094686900226F
:1031700040F480406861686900F4804000900098E5
:103180004320FFF723F84320FFF70EF806B0B0BD49
:1031900010B5C179044621B1022901D0FDF732FDF5
:1031A0000121D4F8E00405F07FFFD4F8E004BDE885
:1031B000104005F02FBF0000D0F8E00405F05ABF22
:1031C000D0F8E00405F060BF90F89424012A04BF11
:1031D0000220704710B5012280F8942441740268DF
:1031E0000446104607F098FB002084F8940410BDB4
:1031F000D0F8E02400F29C41104605F06BBF0000BF
:1032000010B5044690F89404012804BF022010BDB4
:103210002068012184F89414C168490606D5617BB1
:10322000012903D1816B41F48031816307F0C2F839
:10323000206806F031FC002084F8940410BD0000E2
:1032400010B50446D0F8E00405F098FF2068D0F8E7
:10325000001E41F00101C0F8001EE07A002808BFFE
:1032600010BD4EF61050CEF20000016841F006018C
:10327000016010BD002804BF012070472DE9F04116
:1032800043F60808C4F202080446D8F8F8030D46CD
:1032900000F00700884207D288F8F853D8F8F803FE
:1032A00000F00700A84277D12068810717D54107B1
:1032B00005D5D8F8001041F4E051C8F80010010716
:1032C00005D5D8F8001041F46041C8F80010D8F8CE
:1032D0000010A26821F0F0011143C8F80010C007E7
:1032E00040D1D8F8F80300F00700A84207D988F8C1
:1032F000F853D8F8F80300F00700A8424CD1206832
:10330000410707D5D8F80010E26821F4E0511143D5
:10331000C8F80010000708D5D8F80000216920F48B
:10332000604040EAC100C8F8000000F083F8D8F817
:10333000001044F6F002C1F30311C0F60102515C23
:1033400040F2B40220FA01F140F20400C2F200009F
:103350000068C2F200021160FEF7E6FE0020BDE840
:10336000F08100BF6068811E022907D258F8081C4E
:1033700089015CBF0120BDE8F08111E0012807D17F
:1033800058F8081C89035CBF0120BDE8F08107E004
:1033900058F8081C890703D40120BDE8F08100BF5C
:1033A000D8F8001021F003010843C8F80000FEF728
:1033B000A5FB064641F28837D8F80000616800F0A6
:1033C0000C00B0EB810F8CD0FEF798FB801BB8424D
:1033D000F2D90320BDE8F08140F2B400C2F200004F
:1033E0000068704740F2B40043F60801C2F20000E2
:1033F000C4F202010068096844F60012C1F3822198
:10340000C0F60102515CC8407047000040F2B400B1
:1034100043F60801C2F20000C4F202010068096824
:1034200044F60012C1F34231C0F60102515CC840BB
:103430007047000010B543F60404C4F2020460684B
:1034400000F00C0008280BD0042819BF42F20040FD
:10345000C0F2F40041F60030C0F2B70010BD00BF6A
:10346000206821682368490241F60031C0F2B701A3
:1034700000F03F02C3F388105CBF42F20041C0F28B
:10348000F401A1FB00010023FCF796FF2168022252
:10349000C1F3014102EB4101B0FBF1F010BD0000AE
:1034A000002804BF012070472DE9F04182B0044696
:1034B000007843F60006C007C4F202060CD0B068DC
:1034C00000F00C00042840F081803068800303D5B0
:1034D0006068002800F06881207880071BD5B068FC
:1034E00010F00C0F09D0B06800F00C00082840F074
:1034F00087807068400200F183803068800703D5C0
:10350000E068012840F050813068216920F0F8001F
:1035100040EAC10030602078000713D420784007CB
:103520002AD4A569002D00F03A81B06800F00C00A3
:10353000082840F0A580012D40F00E81012002B046
:10354000BDE8F0816069002800F082800020C4F2AC
:1035500047200121C0F8801EFEF7D0FA054600BFC3
:10356000706F8007DAD4FEF7C9FA401B0228F7D93A
:10357000032002B0BDE8F081306C5FEAC0080AD4D5
:1035800000200190306C40F080503064306C00F0CE
:1035900080500190019847F20007C4F20007386894
:1035A000C00547D4386840F480703860FEF7A6FA4A
:1035B000054600BF3868C0053CD4FEF79FFA401BA3
:1035C0000228F7D9032002B0BDE8F081B06800F00E
:1035D0000C00082803D1706840023FF576AF61689F
:1035E0003068B1F5803F07D0B1F5A02F40F09A8048
:1035F00040F480203060306840F4803030609AE0E1
:10360000E068002840F20000C4F247205CD00121AD
:103610000160FEF773FA0546306880073FF574AF26
:10362000FEF76CFA401B0228F6D9032002B0BDE871
:10363000F08100BFA168306F012905D0052955D15F
:1036400040F004003067306F40F00100306756E012
:103650000020C4F247200021C0F8801EFEF74EFA79
:10366000054600BF706F80077FF558AFFEF746FA3A
:10367000401B0228F6D9032002B0BDE8F08100BF4C
:103680000027C4F2472700203866FEF737FA022DDC
:1036900005460DD13068800140F18A80FEF72EFA90
:1036A000401B02284FF00300F4D902B0BDE8F081BE
:1036B0003068800173D5FEF721FA401B02284FF0D5
:1036C0000300F5D9F1E700BF00210160FEF716FA0B
:1036D000054600BF306880077FF51DAFFEF70EFA84
:1036E000401B02284FF00300F4D9DEE720F0010070
:1036F0003067306F002920F0040030677AD0FEF781
:10370000FDF9054641F28837306F800700F184806B
:10371000FEF7F4F9401BB842F6D9032002B0BDE829
:10372000F08100BF20F4803030603068002920F440
:10373000802030607AD0FEF7E1F9054630688003DA
:103740003FF5CAAEFEF7DAF9401B6428F6D903202C
:1037500002B0BDE8F08100BF7068E16900F480024A
:103760008A4221D1216A00F03F028A421CD147F6E9
:10377000C071626A0140B1EB821F15D1A16A4FF698
:10378000FF73C903994300F44032A1F580318A42A6
:103790000AD1E16A00F07060B0EB016F04D1002043
:1037A00002B0BDE8F08100BF012002B0BDE8F081A9
:1037B00004F11C052FCD084340EA8210D9034FF6CF
:1037C000FF729143A1F5803140EA056008437060C3
:1037D00001203866FEF792F9044600BF3068800188
:1037E000DDD4FEF78BF9001B02284FF00300F5D95A
:1037F0005BE700BFFEF782F9054641F2883700BF5C
:10380000306F800708D5FEF779F9401BB8424FF0BA
:103810000300F5D949E700BFB8F1000F3FF581AECD
:10382000306C20F0805030647BE600BFFEF766F914
:10383000054600BF306880037FF54EAEFEF75EF9A7
:10384000401B64284FF00300F4D92EE770470000B6
:1038500090F851007047000070B528B1416A29B155
:1038600000210161142106E0012070BD4168B1F51D
:10387000827F02D01C21002242500026866290F8EE
:10388000511029B980F85060054600F03DF82846EF
:10389000022180F8511090E82E0002F482720C6828
:1038A00003F4044324F040040C601A4405F400635C
:1038B00005691A4405F0020345691A4405F001033D
:1038C0008569C4691A4405F400731A4404F0380386
:1038D000046A1A4404F08003846A1A4304F400530F
:1038E0001A430A60436A042202EA154203F01003F5
:1038F0001A444A60CA6922F40062CA61012146651D
:1039000080F85110304670BD2DE9F04F87B0044665
:1039100043F200070068C4F201070026B842069689
:10392000CDE904660396029602D007B0BDE8F08F99
:1039300043F630000196C4F20200416902AD41F441
:1039400080514161416946F2104801F48051019172
:103950000199019601684FF0020941F002010160EE
:1039600001684FF0030A01F00201019101990196EB
:1039700001684FF0050B41F0010101600068294624
:1039800000F00100019001981820029007F55440C2
:10399000C4F20208CDE90396CDF814A0CDF818B012
:1039A000FDF7D6FF8020CDE9020904A880E8400C8D
:1039B00007F550402946FDF7CBFF42F65C55C2F2B1
:1039C00000054FF0C0674FF480692846C5E90087BD
:1039D000C5E90266C5E90496C5E90666C5E9086653
:1039E000FDF79EFE002818BFFDF70CF9E564AC63F7
:1039F00042F6BC5508F14800C2F200054021C5E975
:103A0000000705F10800002280E806022846C5E903
:103A10000522C5E907226A62FDF782FE002818BF69
:103A2000FDF7F0F8A564AC6307B0BDE8F08F0000C7
:103A3000F0B581B0044690F85100012810D16068BB
:103A40001D46B0F5827F03D1A068002800F0C08039
:103A500094F85000012809D1022001B0F0BD00BF48
:103A60000220002184F8501001B0F0BD012017465B
:103A700084F850000E46FEF741F8002E00F0C48096
:103A800031460646002F4FF00100EAD00420002303
:103A900084F851006365A163A787E7872363A38642
:103AA000E386A1682068B1F5004F3A462364636459
:103AB0003ED1016821F040010160016821F480419C
:103AC00001600168490636D5E168E08FD9B3002866
:103AD00068D0681C0BD11AE0C068A16B21F8020BFA
:103AE000A163E08F0138E087E08F00285AD020687A
:103AF0008168C907F0D1FEF701F8801BA842F3D313
:103B00003AE000BFFDF7FAFFE08F00284AD02068B6
:103B10008168C907F6D0C068A16B21F8020BA163C8
:103B2000E08F0138E087E08F0028F0D13AE000BF55
:103B300001684906C8D4016841F040010160E168AC
:103B4000E08F0029C3D168B3681C0CD11AE000BF14
:103B5000007BA16B0870A06B0130A063E08F01387F
:103B6000E087E08FF0B120688168C907F0D1FDF7E8
:103B7000C5FF801BA842F4D303204CE0FDF7BEFF35
:103B8000E08F78B120688168C907F7D0007BA16B0E
:103B90000870A06B0130A063E08F0138E087E08FF0
:103BA0000028EFD16068B0F5827F0ED1A068B0F533
:103BB000004F02D0B0F5806F16D12168B0F5806F4C
:103BC0000A6822F040020A600ED1204601210DE071
:103BD000042084F85100204613460A46009500F060
:103BE0008FFA01B0F0BD00BF2046802100222B4695
:103BF000009604F02FFA28B1606D40F02000606557
:103C000020206065606D28B10120002184F85010EB
:103C100001B0F0BD0020012184F85110002184F88A
:103C2000501001B0F0BD0000B0B590F85150012D1A
:103C300010D1846813460A4694B94168B1F5827F71
:103C40000ED10425114680F85150BDE8B04000F077
:103C500007BC00BF0221002280F850200846B0BDFA
:103C600090F85010012904BF0220B0BD0121002AA4
:103C700080F8501018BF002BEDD004214FF0000E3B
:103C8000054680F8511045F854EF82638387C38757
:103C9000C0E910EEA0F834E0A0F836E00168B4F511
:103CA000004F07D10B6823F040030B600B6823F42F
:103CB00080430B60D0F84CC047F6F94347F61154E7
:103CC000C0F60003C0F60004CCE90F4347F6D94321
:103CD000C0F60003CCE9133EC38F04460C316046A6
:103CE000FDF7D0FD20B101211022204610E000BFD9
:103CF000256820462968490603D4296841F0400117
:103D0000296055F8041F012241F02001296000219B
:103D10002B681A432A60002280F850200846B0BD64
:103D200090F85130012B1CBF02207047B0B5D0F87D
:103D300008E0BEF1000F49D14368B3F5827F45D159
:103D4000042380F8513090F85130042B01D0012B1E
:103D50004BD100294FF0010318BF002A3CD0844604
:103D60001CF8503F012B40D0012380F8503090F8D0
:103D7000513047F6B90E042B1CBF052380F8513093
:103D80000023436501638286C28681638287C2877E
:103D9000C26847F68903C0F6000EC0F60003002A89
:103DA00047F6ED02016808BF734647F61D1EC0F6D0
:103DB0000002C0F6000E08BF7246C0E91032086863
:103DC00040064FF0E0003FD542E000BF00294FF031
:103DD000010318BF002A03D1BDE8B0401846704760
:103DE00084461CF8503F012B04D10223BDE8B040AB
:103DF00018467047042380F85130002343658163DF
:103E00008287C28703638386C386C26847F6D575F7
:103E1000016847F6F574C0F60005002AC0F60004F4
:103E200008BF2546BEF5004FC0E9105307D108680A
:103E300020F040000860086820F4804008600868AE
:103E400040064FF0600003D40A6842F040020A6066
:103E500000238CF800304A6810434860BDE8B04049
:103E60001846704770470000704700002DE9F04188
:103E700084B0044690F85000012803D1022004B019
:103E8000BDE8F08101201D460F46164684F850001B
:103E9000FDF734FE94F8511001290DD18046002F12
:103EA0004FF0010018BF002E0ED1002184F85010F1
:103EB00004B0BDE8F08100BF0220002184F850105A
:103EC00004B0BDE8F08100BF0320002284F8510057
:103ED00062652763A686E686A263A287E287A0685A
:103EE0003146B0F5004F20682264626407D1026851
:103EF00022F040020260026842F4804202600268DE
:103F0000520603D4026842F040020260626801393E
:103F1000E368B2FA82F2B1FA81F152094909B3F5C4
:103F2000006F41EA020139D131B137F8021BC1609B
:103F30002763E08E0138E086E08E002868D0681C98
:103F40000BD11AE0216B31F8022BC2602163E08EA5
:103F50000138E086E08E00285AD020688168890701
:103F6000F0D4FDF7CBFDA0EB0800A842F2D338E077
:103F7000FDF7C4FDE08E00284AD0206881688907DB
:103F8000F6D5216B31F8022BC2602163E08E013837
:103F9000E086E08E0028F0D13AE000BF39B13978F0
:103FA0000173206B01302063E08E0138E086E08EE3
:103FB00070B3681C0BD11BE0216B09780173206B77
:103FC00001302063E08E0138E086E08E00B3206887
:103FD00081688907F0D4FDF791FDA0EB0800A842A5
:103FE000F3D3032083E000BFFDF788FDE08E78B1B6
:103FF000206881688907F7D5216B09780173206BE8
:1040000001302063E08E0138E086E08E0028EFD199
:104010002046022101222B46CDF8008004F01AF838
:10402000D0B1606D40F02000606520206065A06820
:1040300038B9002002902068C1680291806802901F
:104040000298606D002851D00120002184F85010A2
:1040500004B0BDE8F08100BF40F2B400C2F200003D
:10406000006849F68171C1F25E61A0FB0101480D53
:104070004FF47A71484303906068B0F5827F0BD1AA
:104080002046802100222B46CDF8008003F0E2FF7D
:104090000028C6D1CBE700BF03980028C7D00398FB
:1040A00001380390206880680006C0D50398002876
:1040B000BDD0039801380390206880680006B6D50B
:1040C00003980028B3D003980138039020688068D3
:1040D0000006ACD503980028A9D0039801380390B6
:1040E000206880680006D7D4A1E700BF0020012126
:1040F00084F85110002184F8501004B0BDE8F0811C
:104100002DE9F04383B0044690F85000012803D114
:10411000022003B0BDE8F08301201E4615460F467D
:1041200084F85000FDF7EAFC94F85110814601290B
:104130000CD1002F4FF0010018BF002D14D1002129
:1041400084F8501003B0BDE8F08300BF6068B0F59C
:10415000827F40F0998004294FF00200EFD1A168DE
:104160000029E6D0EBE700BF002EE8D094F851001C
:10417000002104281CBF052084F851006165A56357
:10418000E687A6872763E6862068A68621646164A1
:104190000168490603D4016841F04001016061688B
:1041A000731EE268B1FA81F1B3FA83F3DDF8288077
:1041B00049095B09B2F5006F41EA03016CD131B1E5
:1041C00037F8021BC1602763E08E0138E0860125C5
:1041D00018F1010031D101E0FDF790FCE08E18B933
:1041E000E08F002800F0C0802068816889070CD526
:1041F000E18E51B1012D08D1216B002531F8022B40
:10420000C2602163E18E0139E1868168C907E3D08C
:10421000E18F0029E0D0C068A16B012521F8020BD5
:10422000A163E08F0138E087D6E700BFFDF766FCA9
:10423000A0EB0900404580F0AD80E08E18B9E08F1A
:10424000002800F091802068816889070CD5E18EF4
:1042500051B1012D08D1216B002531F8022BC2602C
:104260002163E18E0139E1868168C907DED0E18FE3
:104270000029DBD0C068A16B012521F8020BA163E6
:10428000E08F0138E087D1E70220002184F8501048
:1042900003B0BDE8F08300BF39B139780173206BFA
:1042A00001302063E08E0138E086012518F101001D
:1042B00032D101E0FDF722FCE08E10B9E08F00283A
:1042C00052D02068816889070ED5E18E61B1012D39
:1042D0000AD1216B002509780173216B2068013117
:1042E0002163E18E0139E1868168C907E2D0E18F5F
:1042F0000029DFD0C068A16B01250870A06B0130D8
:10430000A063E08F0138E087D4E700BFFDF7F6FB3C
:10431000A0EB090040453DD2E08E08B9E08F18B30C
:104320002068816889070ED5E18E61B1012D0AD11F
:10433000216B002509780173216B2068013121630D
:10434000E18E0139E1868168C907DFD0E18F00295C
:10435000DCD0C068A16B01250870A06B0130A063A0
:10436000E08F0138E087D1E7204602210122434651
:10437000CDF8009003F06EFEB0B1606D40F020000B
:104380006065202060650120002184F8501003B092
:10439000BDE8F083012084F851000320002184F857
:1043A000501003B0BDE8F08340F2B400C2F2000048
:1043B000006849F68171C1F25E61A0FB0101480D00
:1043C0004FF47A71484302906068B0F5827F0BD158
:1043D0002046802100224346CDF8009003F03AFEAB
:1043E0000028CAD124E000BF029808B3029801381F
:1043F00002902068806800061AD50298C0B1029821
:104400000138029020688068000611D5029878B1C2
:1044100002980138029020688068000608D502984A
:1044200030B1029801380290206880680006DBD421
:10443000A06838B9002001902068C16801918068A7
:1044400001900198606D00284FF0010004BF84F8CE
:1044500051000020002184F8501003B0BDE8F08323
:10446000F0B581B090F85060012E05D14FF0020CEC
:10447000604601B0F0BD00BF012680F8506090F8A2
:104480005160012E5ED100294FF0010C18BF002AA7
:1044900066D0002B64D090F851600446042E1CBFF7
:1044A000052680F85160002644F8546F0163838626
:1044B000C38682638387C387C0E9106690F8511072
:1044C00047F6F94347F60957C0F60003C0F6000760
:1044D0000568D0F84CC0042908BF1F4647F61151A3
:1044E00047F6D163C0F60001C0F6000308BF0B46D3
:1044F00047F6D941C0F60001CCE90F37CCE91316D5
:10450000C38F074605F10C016046FDF7BBF980B982
:104510003D68396BB86C6B6805F10C0243F0010320
:104520006B60C0E90F66C0E91366FB8EFDF7AAF960
:10453000E0B14FF0010C1021384622681143216090
:104540000EE000BF4568B5F5827F07D1042E4FF01D
:10455000020C05D18668002E95D001E04FF0020CC8
:10456000002180F85010604601B0F0BD3C6838462C
:104570002168490603D4216841F04001216054F8C4
:10458000041F4FF0000C41F0200121600221D4E70C
:1045900090F85030012B04BF02207047012380F8AF
:1045A000503090F85130012B0AD100294FF001030F
:1045B00018BF002A0AD1002180F850101846704711
:1045C0000223002180F8501018467047B0B503232D
:1045D00080F851300023044644F8543F016382863A
:1045E000C2868363C0E910338387C3878568026806
:1045F000B5F5004F07D1156825F040051560156821
:1046000045F480451560D0F848C047F6015E47F68E
:10461000BD55C0F6000EC0F60005CCE90F5E47F6AA
:10462000D945C0F60005CCE91353C38E05460C32BC
:104630006046FDF727F918B10123102128460FE045
:104640002C6828462168490603D4216841F04001BE
:10465000216054F8041F002341F020012160022151
:10466000226811432160BDE8B040002180F850105D
:104670001846704700294FF0010318BF002A01D1E6
:104680001846704790F85130012B03D190F8503004
:10469000012B01D10220704710B5032380F851305F
:1046A0000023436501638286C28683638387C38751
:1046B000D0E902C248F21504016848F2350EC0F68E
:1046C0000004002AC0F6000E08BF7446BCF5004F77
:1046D000C0E9103407D10A6822F040020A600A6873
:1046E00042F480420A600A68520603D40A6842F023
:1046F00040020A6080F85030486840F0A0004860EE
:10470000BDE8104018467047704700007047000031
:1047100070470000704700004EF21001CEF2000119
:104720000A68042822F0040208BF04320A607047B5
:10473000411E0020B0EB116F1CBF012070474EF2EC
:104740001002CEF2000251604EF62351CEF200016B
:10475000F0230B70072190601160704770470000D4
:104760007047000090F83C20012A04BF02207047E7
:10477000B0B501F108053CCDD1E900CE23F47C535E
:1047800022F470521A432EF4F0431A432CF4E043FF
:104790001A4324F4C0431A432A43C96922F48042CD
:1047A000036811435964002180F83C100020B0BD1B
:1047B00090F83C20012A4FF0020254D010B580F846
:1047C0003D200268D2F804E0D2F808C00C682EF050
:1047D0007003234341F2FF74C4F20004A242536009
:1047E0000EDC40F2FF73C4F200039A4216DCB2F111
:1047F000804F2BD040F20043C4F2000324E000BFFE
:1048000040F2FF33C4F201039A4213DC41F6000385
:10481000C4F200039A4219D0002313E040F60003CB
:10482000C4F200039A4211D040F60043C4F20003E0
:104830000AE000BF44F20003C4F201039A4205D02B
:1048400040F20043C4F201039A4204D149682CF0BB
:104850008003194391600121002280F83D1080F807
:104860003C20BDE81040104670470000002804BFFF
:104870000120704710B5044690F83D0028B900208B
:1048800084F83C00204600F01FF8022084F83D0028
:104890002068211D03F0FAFC012084F8460084F80A
:1048A0003E0084F83F0084F8400084F8410084F81A
:1048B000420084F8430084F8440084F8450084F8FA
:1048C0003D00002010BD000080B582B000684FF6AA
:1048D000FF71C4F2000188421EDD44F20041C4F2BF
:1048E0000101884232D040F20041C4F20101884205
:1048F0003AD00021C4F20101884244D10020019045
:1049000043F64400C4F20200016841F00101016075
:10491000006800F0010034E0B0F1804F36D040F67E
:104920000041C4F2000188422DD10020019043F6DD
:104930004400C4F2020050F8041C41F0080140F8A1
:10494000041C50F8040C00F008001AE0002001904C
:1049500043F64400C4F20200016841F400310160F2
:10496000006800F400300CE00020019043F64400A1
:10497000C4F20200016841F002010160006800F029
:1049800002000190019802B080BD00BF002001909C
:1049900043F64400C4F2020050F8041C002241F027
:1049A000010140F8041C50F8040C002100F0010043
:1049B000019001981C20FDF709FC1C2002B0BDE805
:1049C0008040FDF7F1BB000090F83D1001291CBFAD
:1049D00001207047022180F83D10006841F2FF720B
:1049E000C168C4F20002904241F00101C1600DDCD7
:1049F00040F2FF71C4F20001884215DCB0F1804F33
:104A00002AD040F20041C4F2000123E040F2FF311D
:104A1000C4F20101884213DC41F60001C4F2000136
:104A2000884219D0002113E040F60001C4F20001D1
:104A3000884211D040F60041C4F200010AE000BFF4
:104A400044F20001C4F20101884205D040F2004165
:104A5000C4F20101884206D1816801F007010629EC
:104A600004BF00207047016841F00101016000208F
:104A70007047000090F83C20012A4FF002026CD0F1
:104A800080B580F83D20D0F800C04FF67772DCF892
:104A9000083023EA0202CCF808200B684F2B29DCEF
:104AA0001F2B45DD202B46D0302B44D0402B40F02F
:104AB000AF80D1F804E0C968DCF82030DCF82020B1
:104AC00022F00102CCF82020DCF8182022F0F002BD
:104AD00042EA011123F00A0242EA0E02CCF8181051
:104AE000CCF82020DCF8081041F0470121F030011B
:104AF00028E000BF6F2B33DDB3F5005F74D0B3F552
:104B0000805F21D0702B40F08380D1E901E3C96838
:104B1000DCF8082043EA0E0322F47F4243EA012135
:104B20001143CCF80810DCF8081041F0770109E0D7
:104B30000BB1102B6CD1DCF8081021F07001194377
:104B400041F00701CCF808100022012180F83D1047
:104B5000002180F83C10BDE880401046704700BF3F
:104B6000502B21D0602B53D1D1F804E0C968DCF878
:104B70002030DCF8202022F01002CCF82020DCF8D5
:104B8000182022F4704242EA013123F0A00242EAE6
:104B90000E12CCF81810CCF82020DCF8081041F0E8
:104BA000670121F01001CDE7D1F804E0C968DCF815
:104BB0002030DCF8202022F00102CCF82020DCF8A4
:104BC000182022F0F00242EA011123F00A0242EA20
:104BD0000E02CCF81810CCF82020DCF8081041F0B8
:104BE000570121F02001ADE7D1E901E3C968DCF804
:104BF000082043EA0E0322F47F4243EA01211143D5
:104C0000CCF80810DCF8081041F480419AE700BFA6
:104C100001229AE77047000070B504460068C56835
:104C20000669B10716D515F0020113D06FF0020125
:104C30000161012121778069800703D02046FFF7B9
:104C4000E9FF05E0204600F0FFF9204600F086FB72
:104C500000202077700719D515F0040016D02068C1
:104C60006FF00401016102212177806910F4407F17
:104C700004D02046FFF7CEFF06E000BF204600F03C
:104C8000E3F9204600F06AFB00202077300717D5B3
:104C900015F0080014D020686FF0080101610421AC
:104CA0002177C069800703D02046FFF7B3FF05E0F6
:104CB000204600F0C9F9204600F050FB0020207784
:104CC000F00619D515F0100016D020686FF010010D
:104CD000016108212177C06910F4407F04D020468B
:104CE000FFF798FF06E000BF204600F0ADF9204630
:104CF00000F034FB00202077F00718BF15F001000A
:104D000002D1300609D412E020686FF00101016180
:104D1000204600F0ADFB300609D515F0800006D026
:104D200020686FF0800101612046FFF717FD7006D3
:104D300009D515F0400006D020686FF040010161F0
:104D4000204600F097FBB00658BF70BD15F020005C
:104D500008D021686FF0200220460A61BDE870404B
:104D6000FFF7FEBC70BD000080B586B0006840F261
:104D7000FF31C4F2010188424FF000010591CDE9F5
:104D80000311CDE9011125DC40F60001C4F2000158
:104D9000884243D00021C4F20101884277D100202B
:104DA000009043F63000C4F20200016841F01001A7
:104DB00001600068012100F01000009000984FF49D
:104DC000D440019040F60040C4F2020000F580603B
:104DD00054E000BF40F20041C4F20101884235D0E6
:104DE00044F20041C4F20101884250D100200090F9
:104DF00043F63000C4F20200016841F02001016076
:104E0000006800F02000009000984020019040F6DB
:104E10000040C4F2020000F500602EE00020009087
:104E200043F63000C4F20200016841F0080101605D
:104E30000068022100F00800009000984FF48040C4
:104E4000019040F60040C4F2020017E000200090FC
:104E500043F63000C4F20200016841F48071016041
:104E6000006800F4807000900098E020019040F607
:104E70000040C4F2020000F5A05003210222029279
:104E80000022059101A9CDE90322FCF761FD06B0DE
:104E900080BD000090F83C30012B04BF0220704719
:104EA0004FEAB202032A00F2C980F0B5DFE802F04F
:104EB000028A3264026840F20045136A166A23F0DF
:104EC000020326F001061662D2F804E0D2F818C0F8
:104ED0008E6842F48064C4F20105AC4243EA0603E2
:104EE00005D1CE6823F00C0326F0040633430E6888
:104EF000AC4206D1D1E905472EF44075254345EA79
:104F0000070E2CF073073743C2F804E09761496835
:104F1000516389E0026840F20045136A176A23F47E
:104F2000007327F480771762D2F804E0D2F81CC02F
:104F30008E6842F48064C4F20105AC4243EA062361
:104F400007D1CE6840F2FF47360223F44063BE43E8
:104F500033430E68AC4206D1D1E905452EF44057E3
:104F6000254347EA051E2CF073073743C2F804E0D7
:104F7000D7614968D16357E0026840F20047D2F830
:104F800020E0136A42F4806623F48053136253686E
:104F9000D4690D68D1F808C0C4F20107BE4204D13B
:104FA0004E6923F4804343EA861324F4E64646EA36
:104FB00005265360D66149682EF4005747EA0C3342
:104FC000116431E0026840F20045136A176A23F069
:104FD000200327F010071762D2F804E0D2F818C0B7
:104FE0008E6842F48064C4F20105AC4243EA0613C1
:104FF00007D1CE686FF0400723F0C00307EA06161A
:1050000033430E68AC4206D1D1E905452EF4406722
:10501000254347EA850E2CF4E64747EA0627C2F8FF
:1050200004E097614968916300211362BDE8F04094
:10503000002280F83C200846704700BF0121002272
:1050400080F83C200846704770470000002804BFE5
:105050000120704710B5044690F83D0028B90020A3
:1050600084F83C00204600F01FF8022084F83D0040
:105070002068211D03F00AF9012084F8460084F815
:105080003E0084F83F0084F8400084F8410084F832
:10509000420084F8430084F8440084F8450084F812
:1050A0003D00002010BD00007047000090F83C302B
:1050B000012B04BF022070474FEAB202032A00F21C
:1050C000FF802DE9F043DFE802F003B13F7F00BF2E
:1050D000036840F200461C6A1A6A24F0020422F0B7
:1050E00001021A621A46D3F804C052F818EF8F680A
:1050F00043F48065C4F20106B54244EA070405D1D1
:10510000CF6824F00C0427F004073C430F68B54235
:1051100006D1D1E905582CF440762E4346EA080C16
:105120002EF073063743C3F804C09F614F680969C6
:105130005F631C629F6947F008079F619F6927F0C2
:1051400004079F61B1E000BF036840F200481C6A99
:105150001A6A24F4007422F480721A621A46D3F890
:1051600004C052F81CEF8F6843F48065C4F2010854
:10517000454544EA072408D1CF6840F2FF463F0284
:1051800024F4406427EA06063443D1F800904545EC
:1051900006D1D1E905562CF440572E4347EA061CA8
:1051A0002EF0730747EA0907C3F804C0DF614F68B0
:1051B0000969DF631C62DF6947F00807DF61DF69A7
:1051C00027F00407DF6170E0036840F20045D3F880
:1051D00020C01A6A43F4806722F480521A621A4689
:1051E0005C6852F81C8FD1F800E08E68C4F20105AB
:1051F000AF4204D14D6924F4804444EA85142CF470
:10520000005747EA063728F4E64646EA0E265C6071
:10521000DE614E6809691E641F62DF6947F400673A
:10522000DF61DF6927F48067DF613DE0036840F2FA
:1052300000481C6A1A6A24F0200422F010021A6244
:105240001A46D3F804C052F818EF8F6843F480650B
:10525000C4F20108454544EA071407D1CF686FF04E
:10526000400624F0C00406EA07163443D1F8009043
:10527000454506D1D1E905562CF440672E4347EA4F
:10528000860C2EF4E64747EA0927C3F804C09F615D
:105290004F6809699F631C629F6947F400679F61BB
:1052A0009F6927F480679F610902136819431160A1
:1052B0000021BDE8F043002280F83C2008467047FA
:1052C0000121002280F83C2008467047002804BFD6
:1052D0000120704710B5044690F83D0028B9002021
:1052E00084F83C00204600F01FF8022084F83D00BE
:1052F0002068211D02F0CAFF012084F8460084F8CE
:105300003E0084F83F0084F8400084F8410084F8AF
:10531000420084F8430084F8440084F8450084F88F
:105320003D00002010BD0000006840F60001C4F2FE
:105330000001884218BF704781B00020009043F6FA
:105340004000C4F20200016841F0040101600068FD
:1053500000F004000090009801B070477047000012
:10536000C1B1042908D0082914BF41224022825C1F
:10537000012A05D016E000BF3F22825C012A11D12C
:105380000222082910D0042914BF80F8412080F897
:105390003F200BE090F83E20012A03D1022280F842
:1053A0003E2003E00120704780F84020006801F0B3
:1053B0001F010122036A02FA01F123EA01020262DB
:1053C000026A114341F2FF72C4F20002904201628C
:1053D0000CDC40F2FF71C4F20001884214DCB0F131
:1053E000804F37D040F2004116E000BF40F2FF315D
:1053F000C4F20101884215DC41F60001C4F200014B
:10540000884227D0002115E040F60001C4F20001D7
:1054100088421FD040F60041C4F20001884219D0F2
:105420001FE000BF44F20001C4F20101884211D024
:1054300040F20041C4F20101884212D1416C40F2B5
:10544000004340F48062C4F2010341F400419A42F7
:10545000416406D1816801F00701062904BF0020DC
:105460007047016841F001010160002070470000B1
:105470007047000070470000704700007047000050
:10548000B0B582B001680A68CC684B6902F02F059C
:10549000202D04F0200505D125B102B0BDE8B040B3
:1054A00002F09CBF5FEA027C1EBF03F0010E04F411
:1054B000907313EB0E0341D1036BD50618D5012B66
:1054C00016D114F0100313D0002201920A68019241
:1054D0004A680192019A496949064BD4818DC28D6F
:1054E000C38D002B18BF914240F0F48102B0B0BDD3
:1054F00013062DD514F080032AD090F84120212ADC
:10550000F4D18268B2F5805F03D10269002A00F00D
:105510006782026A531C036212784A60C28C013AA5
:105520001304C284E2D1C86820F08000C860C86853
:1055300040F04000C86002B0B0BD00BFD30718BF44
:1055400014F4807340F0D080530700F1D380D8E08A
:105550005206CBD514F04002C8D0CA6822F04002EF
:10556000CA60202180F8411002B0BDE8B04000F0D0
:10557000D5BA00BFC16B0A68526893B2002BB5D090
:10558000858DAB42B2D2C285C969B1F5807F00F08A
:10559000A080016851E8031F026821F4807142E88D
:1055A0000313DBB1016851E8031F026821F4807125
:1055B00042E8031393B1016851E8031F026821F424
:1055C000807142E803134BB1016851E8031F026880
:1055D00021F4807142E80313002BDAD1016851E80D
:1055E000051F026821F0010142E80513BBB3016801
:1055F00051E8051F026821F0010142E8051373B369
:10560000016851E8051F026821F0010142E8051315
:105610002BB3016851E8051F026821F0010142E83F
:105620000513002BDAD11AE0016851E8051F026862
:1056300021F0400142E80513DBB1016851E8051F84
:10564000026821F0400142E8051393B1016851E876
:10565000051F026821F0400142E805134BB10168C3
:1056600051E8051F026821F0400142E80513002BB4
:10567000DAD1202180F8421000210163016851E84D
:10568000031F026821F0100142E80313DBB1016837
:1056900051E8031F026821F0100142E8031393B19F
:1056A000016851E8031F026821F0100142E803136A
:1056B0004BB1016851E8031F026821F0100142E874
:1056C0000313002BDAD1C16B04460846FBF7ECFE4E
:1056D000204602214163818DC28D891A89B202B0B0
:1056E000BDE8B040FFF7C8BE436C43F0010343641C
:1056F000530706D5BEF1000F03D0436C43F00203FD
:105700004364930706D5BEF1000F03D0436C43F00A
:1057100004034364BCF1000F06D55EEA050303D021
:10572000436C43F008034364436C002B3FF4DEAE4C
:10573000920605D525B1044602F050FE21682046A8
:105740004969426C01F0400102F00802891800F03A
:10575000B98000BF016851E8031F026821F490710D
:1057600042E80313BBB3016851E8031F026821F448
:10577000907142E8031373B3016851E8031F026894
:1057800021F4907142E803132BB3016851E8031F21
:10579000026821F4907142E80313002BDAD11AE079
:1057A000016851E8051F026821F0010142E8051374
:1057B000DBB1016851E8051F026821F0010142E8F0
:1057C000051393B1016851E8051F026821F001013A
:1057D00042E805134BB1016851E8051F026821F04A
:1057E000010142E80513002BDAD1016B012924D114
:1057F000016851E8031F026821F0100142E8031319
:10580000DBB1016851E8031F026821F0100142E892
:10581000031393B1016851E8031F026821F01001DE
:1058200042E803134BB1016851E8031F026821F0FD
:10583000100142E80313002BDAD1202180F8421036
:105840000021016301684969490640F1C38001688C
:1058500051E8051F026821F0400142E80513DBB161
:10586000016851E8051F026821F0400142E8051374
:1058700093B1016851E8051F026821F0400142E838
:1058800005134BB1016851E8051F026821F0400182
:1058900042E80513002BDAD1C16B002900F09A8091
:1058A00048F2D132C0F60002044608460A65FBF70A
:1058B00043FE00283FF41AAEE06B016D02B0BDE874
:1058C000B04008470446FFF7D9FD0020606402B0ED
:1058D000B0BD00BF891A00BF026852E8032F0368F9
:1058E00022F4907243E80325BDB3026852E8032F07
:1058F000036822F4907243E8032575B3026852E806
:10590000032F036822F4907243E803252DB3026845
:1059100052E8032F036822F4907243E80325002D18
:10592000DAD11AE0026852E8052F036822F001027A
:1059300043E80525DDB1026852E8052F036822F02F
:10594000010243E8052595B1026852E8052F036876
:1059500022F0010243E805254DB1026852E8052F07
:10596000036822F0010243E80525002DDAD1202248
:1059700080F8422000220263026852E8032F036885
:1059800022F0100243E80325DDB1026852E8032F3C
:10599000036822F0100243E8032595B1026852E83B
:1059A000032F036822F0100243E803254DB102687B
:1059B00052E8032F036822F0100243E80325002D6C
:1059C000DAD1022289B2426302B0BDE8B040FFF7EB
:1059D00053BD00BF02B0BDE8B040FFF74FBD00BFF0
:1059E000026A32F8023B6FF35F234B60026295E577
:1059F000002804BF0120704710B5044690F841000C
:105A000028B9002084F84000204600F021F8242026
:105A100084F841002068C16821F40051C16020462B
:105A200002F05CFD2068016921F490410161416947
:105A300021F02A014161C16841F40051C160002098
:105A40002021606484F8411084F84210606310BD26
:105A500070B586B0044644F600002168C4F2000028
:105A6000002681420596CDE903660296019601D093
:105A700006B070BD43F630010096C4F202010A6917
:105A800000F5E03042F480220A610A6902F48022C3
:105A90000092009A00960A6842F004020A600968BF
:105AA00001F00401009100994FF44061019102213D
:105AB000CDE90216032104910721059101A9FBF705
:105AC00047FF42F61C6546F22800C2F20005C4F208
:105AD00002004FF000614FF480624FF4807385E85C
